:100000000C94900D0C94BA0D0C94BA0D0C94BA0D7E
:100010000C94BA0D0C94BA0D0C94BA0D0C94BA0D44
:100020000C94BA0D0C94BA0D0C94039E0C94809E03
:100030000C94BA0D0C94BA0D0C94BA0D0C94BA0D24
:100040000C94BA0D0C94D9880C94BA0D0C94BA0D7A
:100050000C94BA0D0C94BA0D0C945B970C94629DA1
:100060000C94BA0D0C94BA0D0C94BA0D0C94BA0DF4
:100070000C94BA0D0C94BA0D0C94BA0D0C94BA0DE4
:100080000C94BA0D0C94BA0D0C94BA0D0C94BA0DD4
:100090000C945B990C94BA0DF19A1D9B3F9B3F9B6E
:1000A0003F9B3F9B3F9B3F9B3F9B3F9B3F9B3F9B80
:1000B0003F9B3F9B359B2D9B259B3F9B3F9B3F9BA6
:1000C0003F9B3F9B3F9B3F9B179BFD9A059B0F9B35
:1000D0004E414E494E495459494E46CDCCCC3D0A2D
:1000E000D7233C17B7D13877CC2B329595E6241F10
:1000F000B14F0A000020410000C84200401C4620C9
:10010000BCBE4CCA1B0E5AAEC59D74446F6E6520B2
:10011000736176696E672066696C652E0A004D32E0
:1001200039002020506C616E6E657242756666659E
:100130007242797465733A20002046726565204DDD
:10014000656D6F72793A2000436F6D70696C6564FC
:100150003A204A616E20323620323031380A00208F
:100160007C20417574686F723A202854686F6D6105
:10017000735F50696363696F6E652C20312F32366F
:100180002F32303138290A00323031362D31322DBC
:1001900030362031323A303000204C6173742055B3
:1001A0007064617465643A2000312E312E302D5216
:1001B000434275674669780A004D61726C696E004A
:1001C00020536F6674776172652052657365740A97
:1001D00000205761746368646F67205265736574AB
:1001E0000A002042726F776E206F7574205265731B
:1001F00065740A002045787465726E616C205265E2
:100200007365740A00506F77657255700A007374D5
:100210006172740A005072696E7465722068616C54
:100220007465642E206B696C6C28292063616C6C8A
:100230006564210A004B494C4C45442E20004B4933
:100240004C4C2063617573656420627920746F6F14
:10025000206D75636820696E6163746976652074CA
:10026000696D65202D2063757272656E7420636FF1
:100270006D6D616E643A20006F6B00526573656E40
:10028000643A20004E6F2063617365206C69676873
:10029000740A003A20007A5F6D696E3A20202D3290
:1002A00030207A5F6D61783A20203230005A204F3A
:1002B00066667365742000546F6F206661722066F5
:1002C000726F6D207265666572656E636520706F12
:1002D000696E740A004D343231207265717569722D
:1002E000656420706172616D6574657273206D69FB
:1002F0007373696E670A004D65736820706F696E6D
:10030000742063616E6E6F74206265207265736F16
:100310006C7665640A00426564204C6576656C699C
:100320006E6720004661696C656420746F20656E9D
:1003300061626C6520426564204C6576656C696E0F
:10034000670A0020643A0020693A0020703A0020D1
:10035000643A0020693A0020703A00205A0020597F
:1003600000580020204D61783A2000205A00205982
:1003700000580020204D696E3A20004F6666004FFD
:100380006E2000536F667420656E6473746F7073B3
:100390003A200053657474696E6720547261766503
:1003A0006C20416363656C65726174696F6E3A209D
:1003B0000053657474696E6720526574726163746A
:1003C00020416363656C65726174696F6E3A2000E9
:1003D00053657474696E67205072696E742041634E
:1003E00063656C65726174696F6E3A200053657461
:1003F00074696E67205072696E7420616E64205457
:10040000726176656C20416363656C6572617469C5
:100410006F6E3A20004649524D574152455F4E415A
:100420004D453A4D61726C696E20312E312E302D62
:100430005243427567466978202847697468756237
:100440002920534F555243455F434F44455F555212
:100450004C3A68747470733A2F2F676974687562C8
:100460002E636F6D2F4D61726C696E4669726D7788
:100470006172652F4D61726C696E2050524F544FFE
:10048000434F4C5F56455253494F4E3A312E302020
:100490004D414348494E455F545950453A50726961
:1004A0006E7472626F742045585452554445525FC1
:1004B000434F554E543A3220555549443A6365648A
:1004C00065326132662D343161322D343734382D46
:1004D000396231322D6335356336326633363766ED
:1004E000660A003F0A0020573A006F6B004B494CE8
:1004F0004C45442E20004543484F00494E464F008E
:100500004552524F52530044525952554E00434F98
:100510004D4D554E49434154494F4E006F6666005C
:10052000F604FB04000507050E0544454255473A0D
:100530000050726F7465637465642050696E0A00C0
:100540002569730025696D20256973002569682078
:1005500025696D2025697300256964202569682057
:1005600025696D2025697300256979202569642036
:100570002569682025696D20256973005072696EB0
:10058000742074696D653A2000456E642066696C5C
:1005900065206C6973740A00426567696E2066693C
:1005A0006C65206C6973740A00205A3A2000205947
:1005B0003A200042656420583A200042696C696E16
:1005C000656172204C6576656C696E67204772695B
:1005D000643A0A0052756E6E696E6720696E204437
:1005E00052592D52554E206D6F64650A00473239BD
:1005F000204175746F20426564204C6576656C6996
:100600006E670A0028422961636B00284629726FD1
:100610006E74002852296967687400284C29656641
:1006200074003F2856296572626F7365204C6576A9
:10063000656C20697320696D706C61757369626C9B
:10064000652028302D34292E0A00426164205A206A
:1006500076616C75650A004E6F2062696C696E6523
:10066000617220677269640A0020453A00205A3A94
:100670000020593A00583A005761726E696E673A25
:1006800020486F6D696E672042756D7020446976F1
:1006900069736F72203C20310A004163746976658A
:1006A0002045787472756465723A200020403A00E3
:1006B000202F0020543A0020706F736974696F6EA8
:1006C000206F7574206F662072616E67652E0A0058
:1006D0003F50726F62652000556E6B6E6F776E20B3
:1006E000636F6D6D616E643A202200205A3A2000DB
:1006F00020593A200042656420583A20002066695B
:100700007273740A005A0059005800486F6D6520D2
:100710000020496E76616C69642065787472756436
:100720006572200053442072656164206572726FA7
:10073000720A00446F6E65207072696E74696E672C
:100740002066696C650A004B494C4C45442E2000DC
:100750005072696E7465722073746F707065642076
:1007600064756520746F206572726F72732E2046F7
:10077000697820746865206572726F7220616E649A
:1007800020757365204D39393920746F2072657377
:10079000746172742E202854656D70657261747571
:1007A00072652069732072657365742E20536574B9
:1007B0002069742061667465722072657374617259
:1007C00074696E67290A004E6F204C696E65204E71
:1007D000756D626572207769746820636865636B04
:1007E00073756D2C204C617374204C696E653A20D2
:1007F000004E6F20436865636B73756D2077697475
:1008000068206C696E65206E756D6265722C204C77
:10081000617374204C696E653A2000636865636B90
:1008200073756D206D69736D617463682C204C6104
:100830007374204C696E653A20004C696E65204ED9
:10084000756D626572206973206E6F74204C6173E0
:1008500074204C696E65204E756D6265722B312C6B
:10086000204C617374204C696E653A20004D313123
:100870003000656E7175657565696E67202200FFD1
:1008800001FF0000A0400000A04000000040000068
:10089000164300001643000016430000000000004D
:1008A000164300000000000016430000164300003D
:1008B00016430000000000000000000000007C3C27
:1008C0003E5E2B3D3F2F5B5D3B2C2A225C004D336F
:1008D00031004D383420582059205A204500617588
:1008E000746F25692E67006572726F722077726966
:1008F00074696E6720746F2066696C650A004E6FBC
:1009000074205344207072696E74696E670A0053D4
:1009100044207072696E74696E6720627974652014
:100920000044656C6574696F6E206661696C65640E
:100930002C2046696C653A200046696C6520646528
:100940006C657465643A006F70656E206661696CF1
:1009500065642C2046696C653A2000577269746999
:100960006E6720746F2066696C653A20006F706551
:100970006E206661696C65642C2046696C653A205E
:10098000006F70656E206661696C65642C20466935
:100990006C653A200046696C652073656C6563740C
:1009A00065640A002053697A653A200046696C65DF
:1009B000206F70656E65643A20006F70656E20660A
:1009C00061696C65642C2046696C653A200020667C
:1009D000696C653A20004E6F7720002220706F739B
:1009E000002220706172656E743A220053554252A3
:1009F0004F5554494E452043414C4C207461726719
:100A000065743A22004B494C4C45442E20007472C8
:100A100079696E6720746F2063616C6C20737562F6
:100A20002D67636F64652066696C657320776974F0
:100A30006820746F6F206D616E79206C6576656CCF
:100A4000732E204D4158206C6576656C2069733A91
:100A5000004D3234004D323320257300534420635F
:100A6000617264206F6B0A006F70656E526F6F74F5
:100A7000206661696C65640A00766F6C756D652E21
:100A8000696E6974206661696C65640A005344206C
:100A9000696E6974206661696C0A0043616E6E6FED
:100AA00074206F70656E2073756264697220002017
:100AB000204D383531205A005A2D50726F62652012
:100AC0004F666673657420286D6D293A0A002044CC
:100AD0000020490020204D333034205000204400B5
:100AE00020490020204D333031205000504944200F
:100AF00073657474696E67733A0A00205A00202087
:100B00004D3432302053004175746F2042656420AB
:100B10004C6576656C696E673A0A00205A00205968
:100B20000020204D323036205800486F6D65206F10
:100B300066667365743A0A00204500205A00205901
:100B40000020580020420020540020204D32303533
:100B5000205300416476616E6365643A20533C6DB6
:100B6000696E5F66656564726174653E20543C6DB4
:100B7000696E5F74726176656C5F666565647261EB
:100B800074653E20423C6D696E5F7365676D656E8E
:100B9000745F74696D655F6D733E20583C6D61785C
:100BA0005F78795F6A65726B3E205A3C6D61785F51
:100BB0007A5F6A65726B3E20453C6D61785F655F68
:100BC0006A65726B3E0A0020540020520020204DBE
:100BD000323034205000416363656C657261746922
:100BE0006F6E2028756E6974732F7332293A205006
:100BF0003C7072696E745F616363656C3E20523C49
:100C0000726574726163745F616363656C3E2054E6
:100C10003C74726176656C5F616363656C3E0A006B
:100C2000204500205A0020590020204D323031202C
:100C300058004D6178696D756D20416363656C6521
:100C4000726174696F6E2028756E6974732F7332C8
:100C5000293A0A00204500205A0020590020204D42
:100C60003230332058004D6178696D756D206665AE
:100C7000656472617465732028756E6974732F736F
:100C8000293A0A00204500205A0020590020204D12
:100C90003932205800537465707320706572207566
:100CA0006E69743A0A0020204D3230302044300AF8
:100CB0000020204D32303020543120440020204D7F
:100CC0003230302044002044697361626C65640AEC
:100CD0000046696C616D656E742073657474696E2D
:100CE00067733A002020473231203B20556E6974EB
:100CF0007320696E206D6D0A0A0048617264636F2B
:100D00006465642044656661756C74205365747411
:100D1000696E6773204C6F616465640A00454550D5
:100D2000524F4D20636865636B73756D206D6973F9
:100D30006D617463680A00206279746573290A0022
:100D40002073746F7265642073657474696E677361
:100D500020726574726965766564202800204D6193
:100D6000726C696E3D563335290A0028454550524C
:100D70004F4D3D00454550524F4D20766572736989
:100D80006F6E206D69736D617463682000206279F5
:100D9000746573290A0053657474696E6773205310
:100DA000746F7265642028004572726F72207772CA
:100DB0006974696E6720746F20454550524F4D210C
:100DC0000A007A5F6D696E3A2000795F6D61783A4A
:100DD0002000785F6D696E3A20005265706F727402
:100DE000696E6720656E6473746F702073746174CC
:100DF00075730A00205A3A0020593A0020583A00E8
:100E0000656E6473746F7073206869743A20006D46
:100E10000046696C616D656E7420757365643A2077
:100E20000053746174733A20002C204C6F6E676518
:100E30007374206A6F623A2000546F74616C20747E
:100E4000696D653A200053746174733A20002C2058
:100E50004661696C65643A20002C2046696E6973AE
:100E60006865643A20005072696E74733A200053CA
:100E7000746174733A20006563686F3A004572725A
:100E80006F723A00205A3A0020593A0020436F7599
:100E90006E7420583A004D383420582059205A207A
:100EA000450024F4D43050C38E20C2A24017828B58
:100EB0007011127A910D816CD90AA861E108C758A6
:100EC0006607615143061E4B5D05C145A7041A41E3
:100ED0001104093D9803713931034036DB02653353
:100EE0009102D4305402802E1D02632CEE01752A2B
:100EF000C501B028A001102781018F2564012B2492
:100F00004B01E0223401AC211F018D200D01801F17
:100F1000FC00841EED00971DDF00B81CD200E61B0C
:100F2000C600201BBC00641AB200B219A8000A193E
:100F3000A0006A189900D117910040178B00B516D0
:100F4000840031167E00B31579003A157300C7147A
:100F50006F0058146A00EE136600881363002513AF
:100F60005E00C7125B006C12570015125400C111CD
:100F7000510070114F0021114B00D61049008D1007
:100F800047004610440002104200C00F4000800F8E
:100F90003E00420F3C00060F3B00CB0E3800930E84
:100FA00037005C0E3500270E3400F30D3200C10D02
:100FB0003100900D3000600D2E00320D2D00050D1A
:100FC0002C00D90C2B00AE0C2900850C29005C0CE0
:100FD0002700350C27000E0C2600E80B2400C40B5C
:100FE0002400A00B23007D0B23005A0B2100390B9A
:100FF0002100180B2000F80A1F00D90A1E00BB0AA6
:101000001E009D0A1D00800A1D00630A1C00470A7D
:101010001B002C0A1B00110A1A00F7091A00DD092F
:101020001900C4091900AB091900920917007B09BE
:101030001800630917004C0916003609160020092C
:1010400016000A091500F5081500E0081400CC0880
:101050001400B8081400A4081400900813007D08B8
:1010600012006B08130058081200460812003408DA
:101070001100230811001208110001081100F007E7
:101080001000E0071000D0071000C0071000B007E4
:101090000F00A107100091070E0083070F007407CF
:1010A0000F0065070E0057070E0049070E003B07AB
:1010B0000D002E070E0020070D0013070D00060778
:1010C0000D00F9060C00ED060D00E0060C00D4063C
:1010D0000C00C8060C00BC060C00B0060C00A406F0
:1010E0000B0099060C008D060B0082060B0077069C
:1010F0000B006C060B0061060A0057060B004C063D
:101100000A0042060A0038060A002E060A002406D3
:101110000A001A060A001006090007060A00FD0563
:101120000900F4050900EB050900E2050900D905ED
:101130000900D0050900C7050900BE050900B5056D
:101140000800AD050800A50509009C0508009405E8
:1011500008008C050800840508007C05080074055B
:1011600008006C050700650508005D0507005605C9
:1011700008004E0507004705070040050800380530
:101180000700310507002A050700230507001C0595
:101190000600160507000F050700080506000205F2
:1011A0000700FB040600F5040700EE040600E8044F
:1011B0000600E2040700DB040600D5040600CF04A5
:1011C0000600C9040600C3040600BD040600B704F7
:1011D0000600B1040500AC040600A6040600A00445
:1011E00005009B04060095040500900406008A048F
:1011F000050085040500800406007A0405007504D6
:101200000500700405006B04050066040500610418
:1012100005005C04050057040500520405004D0458
:10122000050048040500430405003E0404003A0498
:10123000050035040500300404002C0405002704D3
:101240000400230405001E0404001A04040016040C
:101250000500110404000D04040009040500040441
:10126000040000040400FC030400F8030400F40379
:101270000400F0030400EC030400E8030400E403AA
:101280000400E0030400DC030400D8030400D403DA
:101290000400D0030400CC030400C8030300C5030A
:1012A000030024F404D9201BC40C5C0E9804C40968
:1012B0005F0265077101F405F900FB04B3004804FF
:1012C0008700C10369005803550003034500BE02AF
:1012D0003A008402310053022A0029022500040248
:1012E0002000E4011C00C8011900AF01170098019B
:1012F00014008401130071011000610110005101FC
:101300000E0043010D0036010B002B010B002001E4
:101310000B00150109000C01090003010800FB0086
:101320000800F3000800EB000700E4000600DE0000
:101330000600D8000600D2000600CC000500C70059
:101340000500C2000500BD000400B9000400B5009E
:101350000400B1000400AD000400A9000400A500D1
:101360000300A20003009F0004009B0003009800FC
:1013700003009500020093000300900003008D001D
:1013800002008B0003008800020086000200840037
:101390000300810002007F0002007D0002007B004C
:1013A000020079000200770001007600020074005C
:1013B000020072000100710002006F0002006D0067
:1013C00001006C0002006A00010069000200670071
:1013D0000100660001006500010064000200620077
:1013E000010061000100600001005F0002005D007B
:1013F00001005C0001005B0001005A00010059007F
:10140000010058000100570001005600010055007E
:10141000010054000100530000005300010052007D
:10142000010051000100500001004F0001004E007A
:1014300000004E0001004D0001004C0001004B0077
:1014400000004B0001004A00010049000100480073
:10145000000048000100470001004600000046006F
:101460000100450000004500010044000100430068
:101470000000430001004200000042000100410062
:10148000000041000100400001003F0000003F005B
:1014900001003E0000003E0001003D0000003D0054
:1014A00001003C0000003C0000003C0001003B004B
:1014B00000003B0001003A0000003A000100390042
:1014C000000039000100380000003800000038003A
:1014D0000100370000003700010036000000360030
:1014E0000000360001003500000035000000350026
:1014F000010034000000340000003400010033001B
:101500000000330000003300010032000000320010
:101510000000320001003100000031000000310005
:1015200001003000000030000000300001002F00FA
:1015300000002F0000002F0000002F0001002E00EF
:1015400000002E0000002E0001002D0000002D00E4
:1015500000002D0000002D0001002C0000002C00D8
:1015600000002C0000002C0001002B0000002B00CC
:1015700000002B0000002B0001002A0000002A00C0
:1015800000002A0000002A000100290000002900B4
:1015900000002900000029000000290001002800A7
:1015A000000028000000280000002800000028009B
:1015B000010027000000270000002700000027008E
:1015C0000000270001002600000026000000260081
:1015D0000000260000002600010025000000250074
:1015E0000000250000002500000025000000250067
:1015F000010024000000240000002400000024005A
:10160000000024000100230000002300000023004C
:10161000000023000000230000002300000023003E
:101620000100220000002200000022000000220031
:101630000000220000002200010021000000210023
:101640000000210000002100000021000000210016
:101650000000210001002000000020000000200008
:1016600000002000000020000000200000002000FA
:101670000000200001001F0000001F0000001F00EC
:1016800000001F0000001F0000001F0000001F00DE
:1016900001001E0000001E0000001E0000001E00D1
:1016A00000002028002920453A0020280029205A3F
:1016B0003A002028002920593A0020280020583AD2
:1016C00000537465707065722063757272656E7414
:1016D0002076616C75657320696E20252028416D28
:1016E0007073293A0A00546865726D616C205275F6
:1016F0006E6177617900544845524D414C205255F6
:101700004E41574159004B494C4C45442E20002036
:101710002D20496E76616C696420657874727564F9
:101720006572206E756D62657220210A00486561E0
:1017300074696E67206661696C65640048656174F0
:10174000696E67206661696C6564004D494E544559
:101750004D502074726967676572656400457272E6
:101760003A204D494E54454D50004D415854454D39
:101770005020747269676765726564004572723AD9
:10178000204D415854454D50006265640A002C209C
:1017900073797374656D2073746F70706564212044
:1017A0004865617465725F49443A20004B642000CB
:1017B00023646566696E65202044454641554C5456
:1017C0005F004B69200023646566696E65202044D4
:1017D000454641554C545F004B70200023646566BC
:1017E000696E65202044454641554C545F00504980
:1017F00044204175746F74756E652066696E6973F7
:10180000686564212050757420746865206C61736C
:1018100074204B702C204B6920616E64204B642037
:10182000636F6E7374616E74732066726F6D206285
:10183000656C6F7720696E746F20436F6E666967A1
:1018400075726174696F6E2E680A005049442041B8
:1018500075746F74756E65206661696C65642120AE
:1018600074696D656F75740A005049442041757440
:101870006F74756E65206661696C656421205465BE
:101880006D706572617475726520746F6F20686920
:1018900067680A00204B643A2000204B693A200018
:1018A000204B703A20000A20436C617373696320F7
:1018B000504944200A002054753A2000204B753AC4
:1018C0002000206D61783A2000206D696E3A20007A
:1018D00020643A200020626961733A200070012C74
:1018E0000190012701B0012201C0011D01F0011882
:1018F000011002130130020E01600209019002047E
:1019000001C002FF000003FA004003F5008003F06D
:1019100000D003EB002004E6007004E100E004DCEA
:10192000004005D700C005D2004006CD00D006C853
:10193000008007C3003008BE00F008B900C009B439
:1019400000B00AAF00B00BAA00D00CA500000EA09A
:1019500000500F9B00C01096005012910000148C94
:1019600000C0158700B0178200B0197D00D01B7829
:1019700000001E730040206E0090226900F0246475
:101980000040275F0090295A00E02B5500102E5090
:101990000020304B0010324600E033410090353CCF
:1019A000001037370070383200A0392D00B03A28C7
:1019B00000A03B2300603C1E00103D1900903D1428
:1019C00000103E0F00703E0A00C03E0500003F00C0
:1019D00000403FFBFF803FF6FFC03FF1FF012902BF
:1019E00029042908291029202940298029012C02AD
:1019F0002C012602260426082610262026402680B2
:101A000026402C802C0123022304230823102320AA
:101A100023402380230120022004200820102020BE
:101A20002040208020102C202C012F022F042F0872
:101A30002F102F202F402F802F7EFE7EFD7EFB7EDD
:101A4000F77EEF7EDF7EBF7E7F00010000FA1A1274
:101A500000020000B71A4300030000B31A04010398
:101A60000904991A1802030904811A1603030904C8
:101A7000731A0C0C033100320033003400350000BF
:101A80000016035500530042002000530065007209
:101A900000690061006C00000018035400650065D7
:101AA000006E00730079006400750069006E006FBD
:101AB0000000000403090409024300020100C032CF
:101AC00009040000010202010005240010010524A0
:101AD0000100010424020605240600010705820313
:101AE00008004009040100020A0000000705030283
:101AF00040000007058402400000120100020200BD
:101B00000020C01683040001010203010001C1028C
:101B10000180360181362131FF7D799813A3293167
:101B200011241FBECFEFD0E2DEBFCDBF12E0A0E098
:101B3000B1E0E0ECFCE501E00BBF02C007900D92C4
:101B4000AE3EB107D9F721E1AEEEB2E001C01D9281
:101B5000A339B207E1F71DE0CFE8DDE004C021972B
:101B6000FE010E9499A6CB38D107C9F70E9436A181
:101B70000C9454AE0C940000FC0165917591859114
:101B800094910895FB0101900020E9F73197AF018E
:101B9000461B570BDC01ED91FC910280F381E02D97
:101BA00009940C9494A0CF93DF931F92CDB7DEB726
:101BB0006983DC01ED91FC910280F381E02D41E02D
:101BC00050E0BE016F5F7F4F09950F90DF91CF917D
:101BD00008952F923F924F925F926F927F928F92D1
:101BE0009F92AF92BF92CF92DF92EF92FF920F93AC
:101BF0001F93CF93DF93CDB7DEB72C970FB6F89432
:101C0000DEBF0FBECDBF142F922E282F30E03A83B7
:101C10002983862F90E09C838B83220F331F49807A
:101C20005A80420E531EFC01E40DF51DEE0FFF1FFE
:101C3000EE0FFF1FEF59FC4F60817181828193810C
:101C40009B01AC010E941AA6882309F42FC16AE007
:101C500087E891E1A8DF412F110F550B29813A81C7
:101C6000240F351FB901660F771F620F731FEB81B9
:101C7000FC81E60FF71FEE0FFF1FEE0FFF1FEF595E
:101C8000FC4FC080D180E280F380420F531F9A0145
:101C9000220F331F420F531FEB81FC81E40FF51F0E
:101CA000EE0FFF1FEE0FFF1FEF59FC4F0081118158
:101CB000B280A380292D990C330B8B819C81820FDC
:101CC000931FF201E80FF91FEE0FFF1FEE0FFF1F2A
:101CD000EF59FC4F9080818072806380280F391FFC
:101CE000420E531EF201EE0FFF1FEE0FFF1FEF59C2
:101CF000FC4F5080418032802380FB01E80FF91FA8
:101D0000EE0FFF1FEE0FFF1FEF59FC4F90819D83D9
:101D1000A181AE83B281BF8383818887240F351F61
:101D2000F901EE0FFF1FEE0FFF1FEF59FC4F9081DF
:101D30009987A181AA87B281BB8723812C879801CB
:101D40004B2D5A2DB8018B2D9A2D0E941AA688234F
:101D500021F000E010E0B12CA12C9601A701B60102
:101D6000C7010E941AA6882319F06801EB2CFA2CEF
:101D7000252D342D432D522D652D742D832D922D1F
:101D80000E941AA6882321F0512C412C312C212CA1
:101D9000292D382D472D562D692D782D872D962DDF
:101DA0000E941AA6882311F04201310129853A8543
:101DB0004B855C8569857A858B859C850E941AA6F2
:101DC000882321F019861A861B861C862D813E8168
:101DD0004F8158856D817E818F8198850E941AA6DA
:101DE000882341F039853D838A858E839B859F8337
:101DF000AC85A88729813A81220F331FE981FA81B6
:101E00002E0F3F1F8B819C81280F391F220F331FFC
:101E1000220F331FD901AF59BC4FBA83A983960152
:101E2000A701B601C7010E9428A398014B2D5A2D86
:101E30000E9427A36B017C01292D382D472D562D9B
:101E4000692D782D872D962D0E9428A3252D342DC0
:101E5000432D522D0E9427A39B01AC01C701B6015F
:101E60000E9428A36B017C012D813E814F81588502
:101E70006D817E818F8198850E9428A329853A856E
:101E80004B855C850E9427A39B01AC01C701B6016D
:101E90000E9428A320E030E040E450E40E94A3A385
:101EA000E981FA8160837183828393832C960FB6D4
:101EB000F894DEBF0FBECDBFDF91CF911F910F9180
:101EC000FF90EF90DF90CF90BF90AF909F908F905A
:101ED0007F906F905F904F903F902F900895CF9399
:101EE000DF93E5E7F6E06491EF012196662329F0A0
:101EF00087E891E158DEFE01F6CF4091AD055091A3
:101F0000AE056091AF057091B00522E030E087E842
:101F100091E147DEE1E7F6E06491EF012196662367
:101F200029F087E891E13FDEFE01F6CF4091B1054F
:101F30005091B2056091B3057091B40522E030E094
:101F400087E891E12EDEEDE6F6E06491EF0121965F
:101F5000662329F087E891E126DEFE01F6CF409165
:101F6000B5055091B6056091B7057091B80522E0AE
:101F700030E087E891E115DEE9E6F6E06491EF01F3
:101F80002196662329F087E891E10DDEFE01F6CF68
:101F90004091B9055091BA056091BB057091BC059F
:101FA00022E030E087E891E1FCDDDF91CF910C94F5
:101FB0001B8A8F929F92AF92BF92CF92DF92EF9245
:101FC000FF920F931F93CF93DF93EBEBF5E06491B8
:101FD000EF012196662329F087E891E1E4DDFE0117
:101FE000F6CFC12CD12C7601C0E060E287E891E108
:101FF000DADDCF5FC630C9F7B701A60187E891E106
:102000000E9487A08FEFC81AD80AE80AF80A83E06E
:10201000C816D104E104F10439F76AE087E891E1D8
:10202000C2DD01E613E0C12CD12C760160E287E825
:1020300091E1B9DDB701A60187E891E10E9487A08F
:10204000C0E0D0E060E287E891E1ADDDF801EC0F9F
:10205000FD1F80809180A280B380A5019401C501FD
:10206000B4010E941AA6811115C020E030E0A90138
:10207000C501B4010E9441A587FD04C06BE287E859
:1020800091E191DD23E030E0B501A40187E891E121
:1020900088DD0BC0B12C60E287E891E184DDB39468
:1020A00086E0B81611F06DE3F7CF2C96C432D10557
:1020B00049F66AE087E891E176DD8FEFC81AD80A21
:1020C000E80AF80A0C5F1F4F83E0C816D104E10448
:1020D000F10409F0ABCF6AE087E891E1DF91CF919D
:1020E0001F910F91FF90EF90DF90CF90BF90AF9036
:1020F0009F908F9058CD0FB6F89480917C1190915D
:102100007D11A0917E11B0917F110FBE8093BF030E
:102110009093C003A093C103B093C203089580912C
:10212000300190913101A0913201B091330180933F
:10213000000490930104A0930204B09303048091DF
:102140002E0190912F019093FF038093FE0384E66C
:1021500090E090932F0180932E01CDCF80910004C9
:1021600090910104A0910204B09103048093300186
:1021700090933101A0933201B09333018091FE031B
:102180009091FF0390932F0180932E01B4CF4F9233
:102190005F926F927F92AF92BF92CF92DF92EF9257
:1021A000FF92CF93DF93EB01FC016081718182810B
:1021B00093812CE3C22ED12CE12CF12CA7019601A6
:1021C0000E945BA6B62EA72ECA01B901A7019601EF
:1021D0000E945BA66B017C01CA01B90128E130E0D5
:1021E00040E050E00E945BA62B013C01C9016DE676
:1021F00071E00E9434A661157105D9F0AF92BF92CB
:10220000DF92CF925F924F929F938F937F936F93C2
:1022100088E695E09F938F93DF93CF930E9441AB25
:102220008DB79EB70E960FB6F8949EBF0FBE8DBFAA
:1022300061C00097C9F0AF92BF92DF92CF925F92D8
:102240004F929F938F9388E595E09F938F93DF93B1
:10225000CF930E9441ABEDB7FEB73C960FB6F89412
:10226000FEBF0FBEEDBF46C04114510461047104AE
:10227000B9F0AF92BF92DF92CF925F924F928CE40F
:1022800095E09F938F93DF93CF930E9441AB8DB7DF
:102290009EB70A960FB6F8949EBF0FBE8DBF2AC098
:1022A000C114D104E104F104A9F0AF92BF92DF920E
:1022B000CF9284E495E09F938F93DF93CF930E9416
:1022C00041ABEDB7FEB738960FB6F894FEBF0FBE20
:1022D000EDBF10C0AF92BF9280E495E09F938F93C3
:1022E000DF93CF930E9441AB0F900F900F900F9010
:1022F0000F900F90DF91CF91FF90EF90DF90CF90F4
:10230000BF90AF907F906F905F904F9008950F9324
:102310001F93CF93DF93CDB7DEB72C970FB6F8940A
:10232000DEBF0FBECDBFEDEAF5E080859185A285C9
:10233000B385448155816681778100811181228135
:10234000338109871A872B873C874D835E836F8390
:10235000788789839A83AB83BC83AE014F5F5F4FDD
:10236000BE016B5F7F4FCE0109960E94BF6F29EBC4
:1023700035E0AE014F5F5F4FBE016B5F7F4FCE0117
:1023800009960E94F17B2C960FB6F894DEBF0FBE23
:10239000CDBFDF91CF911F910F9108958F929F92A2
:1023A000AF92BF92CF92DF92EF92FF920F931F9363
:1023B000CF93DF93CDB7DEB760970FB6F894DEBF4B
:1023C0000FBECDBFB22ED32E7C01EE0CFF1CEE0C47
:1023D000FF1CC70183559A4F4C01FC0110821182EA
:1023E000128213824D875E876F87788B90DF4D85D1
:1023F0005E856F857889F40140835183628373839E
:10240000C090C60320E030E0A901B8018B2D9D2DBE
:102410000E949FA3811108C0F701E65CFD4F9080E8
:10242000A180B280D38002C0902EA12E8091B505EC
:102430009091B605A091B705B091B8054091B1054E
:102440005091B2056091B3057091B4050091AD054E
:102450001091AE052091AF053091B00509871A871C
:102460002B873C874D835E836F83788789839A832C
:10247000AB83BC83AE014F5F5F4FBE016B5F7F4F8D
:10248000CE0109960E94BF6FE92CFA2C0B2D1D2D51
:1024900029EB35E0AE014F5F5F4FBE016B5F7F4FB1
:1024A000CE0109960E9410710E94558910925A0A15
:1024B00060960FB6F894DEBF0FBECDBFDF91CF910F
:1024C0001F910F91FF90EF90DF90CF90BF90AF9052
:1024D0009F908F90089520918C0530E0F901EF5A7C
:1024E000FC4F80832F5F3F4F2370332720938C0551
:1024F00080918E058F5F80938E050895CF93FC01A8
:1025000080818B33A1F080918E05843080F4C62FBA
:10251000BF0180918C0520E6829FC0011124845F59
:102520009B4F0E941DAB8C2FD6DF81E001C080E065
:10253000CF910895EF92FF921F93CF93DF937C0189
:10254000DDDF182F8823C9F0E7E7FEE06491EF0193
:102550002196662329F087E891E125DBFE01F6CF7D
:10256000B70182E798E00E94248162E287E891E166
:102570001ADB6AE087E891E116DB812FDF91CF91CA
:102580001F91FF90EF900895DF92EF92FF920F93CB
:102590001F93CF93DF93CDB7DEB76E970FB6F89446
:1025A000DEBF0FBECDBF60910404709105046115BC
:1025B000710549F14DE150E0CE0101967C010E9488
:1025C000ACAA1E8EF7018F010E191F09D190DD20D4
:1025D00019F09AE0D912F7CFF701E00FF11F10823E
:1025E00060E0C701A7DF882371F0DD20A9F00F5F4D
:1025F0001F4F8091040490910504080F191F109338
:1026000005040093040481E0209104043091050442
:10261000232B29F480E003C000E010E0F0CF6E9699
:102620000FB6F894DEBF0FBECDBFDF91CF911F91E3
:102630000F91FF90EF90DF900895909305048093A1
:102640000404A2CFE0910604F0910704818121E007
:1026500030E0803239F42F5F3F4FDF01A20FB31F0C
:102660008C91F7CF8D3211F08B3231F42F5F3F4FC9
:10267000DF01A20FB31F8C918E3219F4E20FF31F0A
:10268000818190ED980F81E09A3008F080E0089504
:102690000F931F93CF93DF93C0910604D09107044B
:1026A00065E470E0CE010E9409AB8C01CE01019679
:1026B0000115110541F460E070E0DF91CF911F91A9
:1026C0000F910C94C1A6F801108260E070E00E94A6
:1026D000C1A625E4F8012083DF91CF911F910F91CE
:1026E000089580910604909107044AE050E060E06C
:1026F00070E001960C944FA9809106049091070414
:102700004AE050E060E070E001960C9427A88091C8
:102710000604909107044AE050E060E070E0019602
:102720000E9427A8CB010895809106049091070488
:102730004AE050E060E070E001960E944FA9CB01B2
:10274000089580910604909107044AE050E060E00B
:1027500070E001960E9427A897FD1EC08091060494
:10276000909107044AE050E060E070E001960E941A
:1027700027A86F3F71058105910509F07CF48091D0
:102780000604909107044AE050E060E070E0019692
:102790000E9427A8862F089580E008958FEF08955E
:1027A00051DF882331F0CDDF91E0811103C090E04B
:1027B00001C091E0892F08956BCF6ACF682F880FF1
:1027C000770B80910804909109040E9409AB9C0149
:1027D000909307048093060481E0232B09F480E0A2
:1027E0000895EF92FF921F93CF93DF937C0184E5CE
:1027F000E5DF182F882361F1A4DF823020F1E7E7BD
:10280000FEE06491EF012196662329F087E891E1CB
:10281000CAD9FE01F6CF6DE487E891E1C4D9A701DA
:10282000FF0C660B770B87E891E10E9487A089DF98
:10283000682F70E081E197E00E944C816AE087E8B0
:1028400091E1B1D909C07DDF8093910310E004C00C
:102850008091C60380939103812FDF91CF911F91C7
:10286000FF90EF900895CF92DF92EF92FF920F9337
:102870001F93CF93DF93EC01CC0FDD1FCC0FDD1F37
:10288000FE01EF51FC4F20E030E0A9016081718131
:10289000828193810E9428A3FE01E351FC4F208195
:1028A0003181428153810E9428A36B017C01FE018A
:1028B000EB52FC4F6083718382839383CE018E54ED
:1028C000974F5AD98E0107531C4FA70196010E94BA
:1028D00028A3F8016083718382839383CE018A5594
:1028E000974F4AD9C35FDE4FA70196010E9428A3E4
:1028F000688379838A839B83DF91CF911F910F91A6
:10290000FF90EF90DF90CF900895CF92EF92FF92DB
:102910000F931F93CF93DF93CDB7DEB72C970FB6EE
:10292000F894DEBF0FBECDBFC090C603EDEAF5E060
:1029300080859185A285B3854481558166817781A3
:10294000008111812281338109871A872B873C8777
:102950004D835E836F83788789839A83AB83BC833F
:10296000AE014F5F5F4FBE016B5F7F4FCE01099697
:102970000E94BF6FE0903001F09031010091320170
:102980001091330129EB35E0AE014F5F5F4FBE017F
:102990006B5F7F4FCE0109960E9410712C960FB687
:1029A000F894DEBF0FBECDBFDF91CF911F910F9185
:1029B000FF90EF90CF9008958F929F92AF92BF9229
:1029C000CF92EF92FF920F931F93CF93DF93CDB7E8
:1029D000DEB72C970FB6F894DEBF0FBECDBF4B010C
:1029E0005C01C090C603EDE9F5E080859185A28584
:1029F000B38544815581668177810081118122816F
:102A0000338109871A872B873C874D835E836F83C9
:102A1000788789839A83AB83BC83AE014F5F5F4F16
:102A2000BE016B5F7F4FCE0109960E94BF6F85018B
:102A3000740129EA35E0AE014F5F5F4FBE016B5F65
:102A40007F4FCE0109960E9410712C960FB6F89414
:102A5000DEBF0FBECDBFDF91CF911F910F91FF90D1
:102A6000EF90CF90BF90AF909F908F90089580E1AE
:102A7000EDE9F5E0ADEAB5E001900D928A95E1F758
:102A800008952F923F924F925F926F927F928F9212
:102A90009F92AF92BF92CF92DF92EF92FF920F93ED
:102AA0001F93CF93DF9300D000D0CDB7DEB75C018A
:102AB0004B018A013C832B834090300150903101BF
:102AC0006090320170903301FA01C080D180E280C1
:102AD000F380A70196016091B5057091B6058091CC
:102AE000B7059091B8050E949FA387FF2FC0EB8187
:102AF000FC8120803180F281F983EB81FC81F381BC
:102B0000FA8320E030E0A901B10189819F2F0E9462
:102B10009FA3882319F039812A8104C0212C312CEC
:102B200030E820E4C101A32FB22F809330019093AD
:102B30003101A0933201B0933301C092B505D09218
:102B4000B605E092B705F092B805DFDEEB81FC81B7
:102B5000C080D180E280F38020E030E0A901C7018D
:102B6000B6010E949FA3811108C0C0900401D090BB
:102B70000501E0900601F0900701C0923001D0926B
:102B80003101E0923201F0923301F50180819181AF
:102B9000A281B3818093AD059093AE05A093AF055C
:102BA000B093B005F40180819181A281B3818093BB
:102BB000B1059093B205A093B305B093B405A5DE1B
:102BC000F801C080D180E280F380A7019601609176
:102BD000B5057091B6058091B7059091B8050E9432
:102BE00041A5181664F5EB81FC81B080018112814A
:102BF000A38020E030E0A9016B2D702F812F9A2D4A
:102C00000E949FA3882311F02A2D04C0B12C00E05C
:102C100010E820E48B2D902FA12FB22F809330014C
:102C200090933101A0933201B0933301C092B50566
:102C3000D092B605E092B705F092B80566DE0E9424
:102C40005589409230015092310160923201709268
:102C500033010F900F900F900F90DF91CF911F9144
:102C60000F91FF90EF90DF90CF90BF90AF909F902B
:102C70008F907F906F905F904F903F902F9008952E
:102C80009B01AC0161EB75E08DEA95E0FACE9A010B
:102C900045EB55E0F6CE8F929F92AF92BF92CF92C6
:102CA000DF92EF92FF92CF93DF93CDB7DEB72897F5
:102CB0000FB6F894DEBF0FBECDBF2091DD0330917B
:102CC000DE034091DF035091E0030E9428A36B01D3
:102CD0007C016D837E838F83988780908D03909095
:102CE0008E03A0908F03B090900320E030E0A90104
:102CF000C501B4010E949FA387FF0AC0A5019401EA
:102D0000C701B6010E9427A36D837E838F839887B6
:102D10002091B5053091B6054091B7055091B805A1
:102D20006D817E818F8198850E9441A5181654F48B
:102D300019821A821B821C82BE016F5F7F4FCE01F7
:102D400005969EDF28960FB6F894DEBF0FBECDBF66
:102D5000DF91CF91FF90EF90DF90CF90BF90AF9039
:102D60009F908F900895EF92FF920F931F93CF93B0
:102D7000DF93882329F010919A0581E0182701C07C
:102D800010E0662329F0D0919B0581E0D82701C08F
:102D9000D0E0442329F0C0919C0581E0C82701C000
:102DA000C0E0111105C0D11103C0CC2309F45CC0EF
:102DB000E7E7FEE064917F018FEFE81AF80A6623E7
:102DC00031F087E891E10E94D30DF701F3CFEBE0FA
:102DD000F7E064917F018FEFE81AF80A662331F07B
:102DE00087E891E10E94D30DF701F3CF112371F031
:102DF000E9E0F7E064918F010F5F1F4F662331F028
:102E000087E891E10E94D30DF801F4CFDD2371F042
:102E1000E7E0F7E064918F010F5F1F4F662331F009
:102E200087E891E10E94D30DF801F4CFC11103C0EE
:102E3000EDEFF6E00DC0E5E0F7E06491EF012196DB
:102E40006623B1F387E891E10E94D30DFE01F5CF2F
:102E50006491EF012196662331F087E891E10E94A9
:102E6000D30DFE01F5CFC1E08C2FDF91CF911F91E3
:102E70000F91FF90EF9008951F93CF93DF93CDB7FD
:102E8000DEB72C970FB6F894DEBF0FBECDBF909182
:102E9000570A981779F1182F60E070E080E291E40A
:102EA000FADE8091AD059091AE05A091AF05B0918D
:102EB000B00589879A87AB87BC878091B1059091CF
:102EC000B205A091B305B091B4058D839E83AF8305
:102ED000B88719821A821B821C829E012F5F3F4F86
:102EE00045EB55E0BE016B5F7F4FCE010996C9DD12
:102EF0001093570A80E02C960FB6F894DEBF0FBEF1
:102F0000CDBFDF91CF911F9108954F925F926F9245
:102F10007F928F929F92AF92BF92CF92DF92EF9269
:102F2000FF920F931F93CF93DF9300D000D000D078
:102F3000CDB7DEB77C01FC01E158F74F149182E078
:102F4000E816F10421F481E097DF811123C16701C4
:102F5000CC0CDD1CCC0CDD1CC6018257974F0E94A7
:102F6000BC0D4B015C01612F110F770B880B990B86
:102F70000E943EA42B013C0120E030E040EC5FE3E6
:102F8000C501B4010E9475A5A30192010E9475A517
:102F9000AB01BC0100E010E09801C701FFD992E04D
:102FA000E916F10479F48AE898E00E94BC0D20E06B
:102FB00030E040EA50E40E949FA387FD09C08AE800
:102FC00098E003C0C6018E57974F0E94BC0D04C005
:102FD00060E070E080EA90E49B01AC01C301B201C3
:102FE0000E9475A54B015C0120E030E0A9010E9420
:102FF0009FA3882309F45CC000E010E09801B501AC
:10300000A4017058C701CAD986E0EEE7F1E0DE01FD
:10301000119601900D928A95E1F7F701EE0FFF1FCF
:1030200081E090E08C0F9D1FE80FF91F8081918156
:1030300018161906F4F0E7E7FEE064918F010F5FC0
:103040001F4F662331F087E891E10E94D30DF8010C
:10305000F4CFE8E7F6E064918F010F5F1F4F66231E
:1030600031F087E891E10E94D30DF801F4CF8AE0B6
:1030700090E0BC01990F880B990B0E943EA49B0124
:10308000AC01F601E65CFD4F608171818281938124
:103090000E94A3A32B013C01A5019401C501B40129
:1030A0000E9428A3AB01BC0193018201C70176D91C
:1030B00081E0F701E656FA4F8083F701E956FA4FAF
:1030C0008083F601E351FC4F108211821282138239
:1030D000C701C9DBC6018656974F0E94BC0D860109
:1030E00003551A4FF601EB52FC4F2081318142818A
:1030F00053810E9428A3F8016083718382839383A4
:10310000F2E0EF16F104D1F420918D0330918E039B
:1031100040918F03509190036091B5057091B60571
:103120008091B7059091B8050E9427A36093B505DB
:103130007093B6058093B7059093B805E8D8F6016B
:10314000E356FA4FD601A355BA4F8D919D910D903C
:10315000BC91A02D80839183A283B38382E0E81683
:10316000F104C1F480E026960FB6F894DEBF0FBEDE
:10317000CDBFDF91CF911F910F91FF90EF90DF9026
:10318000CF90BF90AF909F908F907F906F905F9007
:103190004F9072CE26960FB6F894DEBF0FBECDBF0D
:1031A000DF91CF911F910F91FF90EF90DF90CF9023
:1031B000BF90AF909F908F907F906F905F904F9057
:1031C00008959F92AF92BF92CF92DF92EF92FF92BB
:1031D0000F931F93CF93DF9300D000D0CDB7DEB70E
:1031E0008DE9C82E85E0D82E9DEAE92E95E0F92ECE
:1031F0002AEFA22E23E0B22E06E312E034E0932E53
:10320000900EF80181918F01D9DA8823D1F040DA4C
:10321000F5012081211104C02091C503222331F042
:10322000F701208131814281538103C020E030E0E9
:10323000A9010E9428A3F60160837183828393838E
:103240000AC0F70180819181A281B381F601808358
:103250009183A283B383F4E0CF0ED11C84E0E80E07
:10326000F11CEFEFAE1ABE0A9012CBCF86E4A6DABD
:10327000882341F00DDA20E030E0A9010E9441A549
:10328000181614F18091BD0583FD2EC02091B9055B
:103290003091BA054091BB055091BC056091A905DC
:1032A0007091AA058091AB059091AC050E9427A36F
:1032B00069837A838B839C83BE016F5F7F4F82E932
:1032C00093E00E941F7E10C0E3D920E030E040E789
:1032D00052E40E94A3A36093300170933101809364
:1032E000320190933301CECF0F900F900F900F903B
:1032F000DF91CF911F910F91FF90EF90DF90CF90D2
:10330000BF90AF909F900895CF93DF93E7E7FEE0E3
:103310006491EF012196662331F087E891E10E94E4
:10332000D30DFE01F5CF60910A0470910B0488ED76
:1033300096E00E94248162E287E891E10E94D30D29
:103340006AE087E891E1DF91CF910C94D30D2F9241
:103350003F924F925F926F927F928F929F92AF9225
:10336000BF92CF92DF92EF92FF921F93CF93DF93A2
:10337000CDB7DEB728970FB6F894DEBF0FBECDBF2E
:103380001C01162F2091D5033091D6034091D7030D
:103390005091D803DC016D917D918D919C910E949B
:1033A00027A36B017C01F10184809580A680B78002
:1033B0004090D9035090DA036090DB037090DC03F7
:1033C000112341F020E030E040EA51E40E9427A3BD
:1033D0006B017C01D10118968D919D910D90BC914E
:1033E000A02D89839A83AB83BC838091DD03909168
:1033F000DE03A091DF03B091E0038D839E83AF8352
:10340000B88727E137EB41ED58EBC701B6010E94C1
:1034100041A587FD43C027E030E046E153E4C70102
:10342000B6010E949FA31816CCF1A3019201C50119
:10343000B4010E9427A36B017C0127E137EB41ED2A
:1034400058EB0E9441A587FD29C027E030E046E106
:1034500053E4C701B6010E949FA31816FCF02D810A
:103460003E814F81588569817A818B819C810E9440
:1034700027A36B017C0127E137EB41ED58EB0E945C
:1034800041A587FD0BC011E027E030E046E153E4A1
:10349000C701B6010E949FA318160CF410E0812FFB
:1034A00028960FB6F894DEBF0FBECDBFDF91CF9147
:1034B0001F91FF90EF90DF90CF90BF90AF909F90C3
:1034C0008F907F906F905F904F903F902F900895D6
:1034D0000F931F93CF93DF938C01E0EDF6E064919F
:1034E000EF012196662331F087E891E10E94D30D28
:1034F000FE01F5CFF8016491EF012196662331F0CA
:1035000087E891E10E94D30DFE01F5CFE7EBF6E0ED
:103510006491EF012196662331F087E891E10E94E2
:10352000D30DFE01F5CFDF91CF911F910F9108953B
:103530008F929F92AF92BF92CF92DF92EF92FF92C3
:103540000F931F93CF93DF9300D000D0CDB7DEB79A
:1035500085E434D9D82E811102C00E94558986E3B2
:10356000A82E82E0B82E9DEEE92E93E0F92E0DEA0A
:1035700015E0812C912CC12CF50181915F011ED9A0
:10358000882359F1F80120813181428153812983B7
:103590003A834B835C837CD8F80160837183828398
:1035A000938329813A814B815C81F3E08F169104EA
:1035B000A1F00E9427A39B01AC01F70160817181FA
:1035C000828193810E9428A3F701608371838283A3
:1035D0009383C40148D9CC24C394FFEF8F1A9F0A68
:1035E00084E0E80EF11C0C5F1F4FE4E08E1691049E
:1035F00009F0C2CFCC2019F00E94871108C0DD204D
:1036000031F069EB75E083E090E00E94E57C0F907B
:103610000F900F900F90DF91CF911F910F91FF901E
:10362000EF90DF90CF90BF90AF909F908F900C94D1
:103630006F0FCF93DF93E8E9F5E06491EF012196F6
:10364000662331F087E891E10E94D30DFE01F5CFAA
:103650008EEB95E00E948E53E9E8F5E06491EF016E
:103660002196662331F087E891E10E94D30DFE0197
:10367000F5CFDF91CF9108958091C105882399F00E
:1036800083E59CD8882379F037D8AB01BC014093FF
:103690002F085093300860933108709332088EE7FA
:1036A00097E00C94034708950F931F93CF93DF93F4
:1036B000CDB7DEB769970FB6F894DEBF0FBECDBFAA
:1036C00082E993E00E94388C6E8B7F8B888F998F74
:1036D000BE016F5F7F4FCE0146960E94C710E7E79D
:1036E000FEE064918F010F5F1F4F662331F087E882
:1036F00091E10E94D30DF801F4CFBE016F5F7F4FBF
:103700008CE795E00E9424816AE087E891E10E94BD
:10371000D30D80918F0A8823F9F010928F0A60915F
:10372000B0107091B110072E000C880B990B0E94FD
:103730003EA42091420130914301409144015091B7
:1037400045010E9441A518163CF41092B110109248
:10375000B01080E00E946F8F69960FB6F894DEBFBC
:103760000FBECDBFDF91CF911F910F9108951F9391
:10377000CF93DF938091C00581110E945589C0913C
:103780000804D091090461E270E0CE010E9409AB07
:10379000009711F0EC01219680E510D8882341F0C4
:1037A00011E080910604909107048C179D0708F0A2
:1037B00010E08091C105882389F1212F41E0BE01ED
:1037C0008EEB95E00E943C5883E50E94DE1388232F
:1037D00039F080910604909107048C179D0768F0DA
:1037E0008EEB95E00E94F054111118C082E993E02D
:1037F000DF91CF911F910C94C7800E947C13AB0185
:10380000BC0140932F0850933008609331087093A7
:1038100032088EE797E00E940347E2CFDF91CF9115
:103820001F91089583E50E94DE13882329F00E94EA
:1038300087138E34910521F082E993E00C94907EF9
:1038400082E993E00C94467E88E690E00E94F113B2
:1038500081112CC08091BD0583FD28C090919103FA
:103860008091C603981322C083E50E94DE1388234B
:10387000D9F00E9448130E940BA47093B11060937A
:10388000B01080E00E946F8F0E94481320E030E06B
:103890004AEA52E40E949FA3181624F082E993E0BA
:1038A0000E94E3800E9448130C94CF7D0895CF932B
:1038B000DF93E3EBF6E06491EF012196662331F0AC
:1038C00087E891E10E94D30DFE01F5CF4091B81039
:1038D0005091B9106091BA107091BB1021E030E0A6
:1038E00087E891E10E94D10DE0EBF6E06491EF01F1
:1038F0002196662331F087E891E10E94D30DFE0105
:10390000F5CF6091B0107091B110072E000C880BAC
:10391000990B0E943EA4AB01BC0121E030E087E896
:1039200091E10E94D10DECEAF6E06491EF0121965D
:10393000662331F087E891E10E94D30DFE01F5CFB7
:103940008091910390E00E944C8DAC01990F660B21
:10395000770B87E891E1DF91CF910C9487A0CF930B
:10396000DF9389E690E00E94F113811115C0EAEE21
:10397000F4E06491EF012196662331F087E891E14C
:103980000E94D30DFE01F5CF92DF6AE087E891E156
:10399000DF91CF910C94D30DDF91CF910895CF9308
:1039A000DF9383E50E94DE13882329F00E9494139D
:1039B000D82FC92F02C0DFEFC0E080E50E94DE13E0
:1039C000882321F00E949413892B61F42D2F3C2F22
:1039D0002F3F310519F010F02FEF30E03093C8037E
:1039E0002093C703DF91CF910895DF92EF92FF926A
:1039F0000F931F93CF93DF9383E50E94DE138823F9
:103A000019F00E94A11301C080E08093BD05E7E793
:103A1000FEE06491EF012196662331F087E891E1A1
:103A20000E94D30DFE01F5CFEAE2F5E06491EF01CB
:103A30002196662331F087E891E10E94D30DFE01C3
:103A4000F5CF8091BD058823A9F180E2E82E85E0BD
:103A5000F82E00E010E020E08091BD0590E0002EFF
:103A600002C0959587950A94E2F780FF1AC0DD247D
:103A7000D394D20E222329F06CE287E891E10E94D0
:103A8000D30DF70185919491FC016491EC0121968D
:103A9000662331F087E891E10E94D30DCE01F4CF87
:103AA0002D2D0F5F1F4FF2E0EF0EF11C05301105B9
:103AB00099F60DC0ECE1F5E06491EF0121966623E3
:103AC00031F087E891E10E94D30DFE01F5CF6AE065
:103AD00087E891E1DF91CF911F910F91FF90EF90D7
:103AE000DF900C94D30D4F925F926F927F92AF92C2
:103AF000BF92CF92DF92EF92FF920F931F93CF93DB
:103B000086E3A82E82E0B82E01EF1AE0C0E0F501AE
:103B100081915F010E94DE13882309F46DC0C330D8
:103B200009F063C00E9448136B017C0120E030E083
:103B300040EA51E40E949FA387FF4EC0A70196016F
:103B40006091FD0A7091FE0A8091FF0A9091000B2E
:103B50000E94A3A32B013C019B01AC016091A90A27
:103B60007091AA0A8091AB0A9091AC0A0E9475A547
:103B70006093A90A7093AA0A8093AB0A9093AC0A47
:103B8000A301920160910D0B70910E0B80910F0BB0
:103B90009091100B0E9475A560930D0B70930E0B06
:103BA00080930F0B9093100B6091DD0A7091DE0AE9
:103BB0008091DF0A9091E00A0E943CA4A301920147
:103BC0000E9475A50E9410A46093DD0A7093DE0A1E
:103BD0008093DF0A9093E00AC092FD0AD092FE0A19
:103BE000E092FF0AF092000B07C00E944813F80110
:103BF0006083718382839383CF5F0C5F1F4FC430D8
:103C000009F085CFCF911F910F91FF90EF90DF903A
:103C1000CF90BF90AF907F906F905F904F900C943B
:103C2000AB7D83E50E94DE138823E9F00E944813F0
:103C3000AB01BC014093B50A5093B60A6093B70A32
:103C40007093B80A4093AD0A5093AE0A6093AF0ADE
:103C50007093B00A8DEE93E00E9489816AE087E854
:103C600091E10E94D30D80E50E94DE138823A9F024
:103C70000E944813AB01BC014093B50A5093B60AA9
:103C80006093B70A7093B80A80ED93E00E9489812F
:103C90006AE087E891E10E94D30D82E50E94DE137D
:103CA0008823A9F00E944813AB01BC014093B10ADC
:103CB0005093B20A6093B30A7093B40A81EB93E015
:103CC0000E9489816AE087E891E10E94D30D84E532
:103CD0000E94DE138823A9F00E944813AB01BC01A7
:103CE0004093AD0A5093AE0A6093AF0A7093B00A46
:103CF00083E993E00E9489816AE087E891E10C946E
:103D0000D30D089583E50E94DE13882351F00E94AD
:103D100048136093B90A7093BA0A8093BB0A9093D0
:103D2000BC0A84E50E94DE13882351F00E944813E8
:103D30006093990A70939A0A80939B0A90939C0AC5
:103D400082E40E94DE13882351F00E947113609375
:103D5000BD0A7093BE0A8093BF0A9093C00A88E59B
:103D60000E94DE13882351F00E94481360939D0A3D
:103D700070939E0A80939F0A9093A00A89E50E94FF
:103D8000DE13882351F00E9448136093A10A7093B8
:103D9000A20A8093A30A9093A40A8AE50E94DE13E4
:103DA000882351F00E9448136093A50A7093A60AD5
:103DB0008093A70A9093A80A85E40E94DE138823C3
:103DC00051F00E9448136093A90A7093AA0A809345
:103DD000AB0A9093AC0A08958F929F92AF92BF92D4
:103DE000CF92DF92EF92FF920F931F93CF93DF93C7
:103DF00086E3C82E82E0D82E9DEAE92E95E0F92EC2
:103E000001EE13E0C0E0D0E0F60181916F010E9465
:103E1000DE13882309F10E9448134B015C01F8016D
:103E200020813181428153810E9427A39B01AC01F3
:103E3000F70160817181828193810E9428A3F7013B
:103E40006083718382839383F80180829182A2824E
:103E5000B382CE010E9433142196F4E0EF0EF11CE0
:103E60000C5F1F4FC330D10579F60E948711DF9197
:103E7000CF911F910F91FF90EF90DF90CF90BF9067
:103E8000AF909F908F900C946F0FCF93DF93E7E7E5
:103E9000FEE06491EF012196662331F087E891E11D
:103EA0000E94D30DFE01F5CF83E50E94DE13882327
:103EB00021F00E94D01380931901E3E8F3E06491AC
:103EC000EF012196662331F087E891E10E94D30D3E
:103ED000FE01F5CF80911901811103C0EBE7F3E0FA
:103EE00002C0EFE7F3E06491EF012196662331F021
:103EF00087E891E10E94D30DFE01F5CFE3E7F3E0FF
:103F00006491EF012196662331F087E891E10E94E8
:103F1000D30DFE01F5CF4091C9035091CA036091C2
:103F2000CB037091CC0381E793E00E94898140919B
:103F3000CD035091CE036091CF037091D0038EE6F4
:103F400093E00E9489814091D1035091D203609106
:103F5000D3037091D4038BE693E00E948981E3E65A
:103F6000F3E06491EF012196662331F087E891E157
:103F70000E94D30DFE01F5CF40910D0150910E012D
:103F800060910F017091100181E693E00E94898198
:103F9000409111015091120160911301709114012F
:103FA0008EE593E00E9489814091150150911601A0
:103FB00060911701709118018BE593E00E9489814F
:103FC0006AE087E891E1DF91CF910C94D30DCF9314
:103FD000DF9385E40E94DE13811110C080E50E940A
:103FE000DE13882399F00E94481360937301709345
:103FF0007401809375019093760108C00E94871325
:10400000181619065CF7EDE7FEE06EC089E40E9421
:10401000DE13882381F00E9448132CEA35EC47E236
:104020005EE30E9475A560936F01709370018093A9
:1040300071019093720184E40E94DE13882381F061
:104040000E9448132CEA35EC47E25EE30E94A3A3EA
:1040500060936B0170936C0180936D0190936E017E
:104060000E944B8DE7E7FEE06491EF012196662305
:1040700031F087E891E10E94D30DFE01F5CF409128
:10408000730150917401609175017091760187E51B
:1040900093E00E9489812CEA35EC47E25EE360916F
:1040A0006F017091700180917101909172010E9475
:1040B000A3A3AB01BC0183E593E00E94AA812CEA93
:1040C00035EC47E25EE360916B0170916C01809189
:1040D0006D0190916E010E9475A5AB01BC018FE44A
:1040E00093E00E94AA8111C06491EF01219666239A
:1040F00031F087E891E10E94D30DFE01F5CF64EB2A
:1041000071E087E891E10E94C20D6AE087E891E1E1
:10411000DF91CF910C94D30DCF93DF9380E50E9474
:10412000DE13882351F00E94481360936701709357
:1041300068018093690190936A0189E40E94DE130B
:10414000882381F00E9448132CEA35EC47E25EE3B5
:104150000E9475A56093630170936401809365016B
:104160009093660184E40E94DE13882381F00E940C
:1041700048132CEA35EC47E25EE30E94A3A3609368
:104180005F017093600180936101909362010E94CE
:104190004B8DE7E7FEE06491EF012196662331F055
:1041A00087E891E10E94D30DFE01F5CF40916701B0
:1041B000509168016091690170916A018BE493E00C
:1041C0000E9489812CEA35EC47E25EE3609163014D
:1041D0007091640180916501909166010E94A3A392
:1041E000AB01BC0187E493E00E94AA812CEA35EC84
:1041F00047E25EE360915F0170916001809161012F
:10420000909162010E9475A5AB01BC0183E493E02B
:104210000E94AA816AE087E891E1DF91CF910C9436
:10422000D30DEF92FF920F93CF93DF9385E40E941B
:10423000DE13882321F00E948713EC0102C0C0E046
:10424000D0E083E40E94DE13882321F00E948713CC
:104250007C0103C085E0E82EF12C85E50E94DE1389
:10426000882321F00E94D013082F01C000E083E5CD
:104270000E94DE13882319F00E94481306C0D7FD60
:1042800009C060E070E086E193E4209739F4109271
:10429000910304C060E070E08CE892E49701AE0105
:1042A0000E94DE8FDF91CF910F91FF90EF900895E4
:1042B000FF920F931F93CF93DF9389E40E94DE1345
:1042C000F82E882331F00E9448130E940BA4C62FB9
:1042D00001C0C0E08AE40E94DE13082F882331F079
:1042E0000E9448130E940BA4D62F01C0D0E08AE59B
:1042F0000E94DE13182F882319F00E94481303C070
:1043000060E070E0CB01FF2021F0002311F01111DB
:1043100003C0EDE7FEE035C0C330C8F4D330B8F4D5
:104320002C2FCC0F330BF901EE0FFF1FE20FF31F01
:10433000ED0FF11DD7FDFA95EE0FFF1FEE0FFF1FDA
:10434000EF59FC4F608371838283938332C0EDE722
:10435000FEE06491EF01219661110DC0E7EFF2E0FC
:104360006491EF012196662321F187E891E10E9493
:10437000D30DFE01F5CF87E891E10E94D30DFE0138
:10438000E8CF6491EF012196662331F087E891E14F
:104390000E94D30DFE01F5CFE5EDF2E06491EF014F
:1043A0002196662331F087E891E10E94D30DFE014A
:1043B000F5CFDF91CF911F910F91FF9008952F922C
:1043C0003F924F925F926F927F928F929F92AF92A5
:1043D000BF92CF92DF92EF92FF920F931F93CF93F2
:1043E000DF9300D000D000D0CDB7DEB781EE282E0D
:1043F00083E0382E0DEA15E08AE995E09A838983F7
:104400001E821D82E981FA81EA59F540FC83EB8323
:10441000E981FA818191FA83E983882309F498C0BC
:10442000ED81FE81E35FFE4F208131814281538126
:10443000ED81FE81E753FC4F608171818281938120
:104440000E9428A320E030E040E05FE30E9475A5D1
:104450009B01AC01F80160817181828193810E948E
:1044600041A518163CF48D819E818656974F0E9477
:10447000BC0D03C060E070E0CB01F801808091804A
:10448000A280B380ED81FE81EB52FC4F208131810F
:10449000428153810E9428A39B01AC01C501B40154
:1044A0000E9427A36B017C0120E030E040EA51EC40
:1044B0000E9441A587FD30C020E030E040EA51E491
:1044C000C701B6010E949FA3181634F1F101408084
:1044D000518062807380A7019601C301B2010E94DE
:1044E00027A36B017C01A30192010E9427A39B01DA
:1044F000AC01C501B4010E9428A3F8016083718357
:1045000082839383F101C082D182E282F3828B8124
:104510009C810E9433141CC0EDE7FEE064918F0182
:104520000F5F1F4F662331F087E891E10E94D30DA2
:10453000F801F4CFE7EBF2E064918F010F5F1F4FBA
:10454000662379F187E891E10E94D30DF801F4CF59
:10455000F4E02F0E311C8D819E8104969E838D8305
:104560000C5F1F4F0C9709F04DCF0E9487112696C4
:104570000FB6F894DEBF0FBECDBFDF91CF911F9174
:104580000F91FF90EF90DF90CF90BF90AF909F90F2
:104590008F907F906F905F904F903F902F900C94F2
:1045A0006F0F26960FB6F894DEBF0FBECDBFDF911A
:1045B000CF911F910F91FF90EF90DF90CF90BF9020
:1045C000AF909F908F907F906F905F904F903F90B3
:1045D0002F900895CF92DF92EF92FF92CF93DF93C7
:1045E000C0900001D0900101E0900201F090030121
:1045F000A7019601C701B6010E941AA6811140C009
:10460000A701960160918D0370918E0380918F03B5
:10461000909190030E9427A36B017C0120E030E081
:10462000A9010E949FA3882359F1C1E6D3E0A70105
:104630009601688179818A819B810E9427A3688382
:1046400079838A839B83A70196016C817D818E810A
:104650009F810E9427A36C837D838E839F83A70104
:104660009601688579858A859B850E9427A368873E
:1046700079878A879B872C9683E0C538D807B9F657
:1046800080918D0390918E03A0918F03B091900340
:104690008093000190930101A0930201B093030164
:1046A000DF91CF91FF90EF90DF90CF900895CF9260
:1046B000DF92EF92FF92CF93DF93E7E7FEE0649102
:1046C000EF012196662331F087E891E10E94D30D36
:1046D000FE01F5CFEDEAF2E06491EF012196662349
:1046E00031F087E891E10E94D30DFE01F5CF8AE514
:1046F0000E94DE13882309F43DC00E9448136B0119
:104700007C0120E030E040EA51EC0E9441A587FDA9
:104710000AC020E030E040EA51E4C701B6010E943F
:104720009FA318161CF4E6E9F2E019C0C0928D03AD
:10473000D0928E03E0928F03F092900380E04ADFE4
:1047400040918D0350918E0360918F03709190037F
:1047500022E030E087E891E10E94D10D17C064911A
:10476000EF012196662391F087E891E10E94D30D35
:10477000FE01F5CF40918D0350918E0360918F0320
:104780007091900383E992E00E9489816AE087E852
:1047900091E1DF91CF91FF90EF90DF90CF900C945B
:1047A000D30DCF92DF92EF92FF920F931F93CF938F
:1047B00083E50E94DE13811104C006E312E0C0E02D
:1047C0000EC00E9448136B017C01C0E0B701A60136
:1047D0008C2F0E94FC8ACF5FC530C1F7EECFF80165
:1047E00081918F010E94DE13882339F00E944813C3
:1047F000AB01BC018C2F0E94FC8ACF5FC43079F7DB
:10480000CF911F910F91FF90EF90DF90CF9008957F
:10481000CF93DF9383E50E94DE13882321F00E946B
:104820009413EC0102C0C0E0D0E080E50E94DE13EA
:10483000882319F00E94A11301C08FEFBE01DF9100
:10484000CF910C943D8BCF93DF93EDE7FEE0649125
:10485000EF012196662331F087E891E10E94D30DA4
:10486000FE01F5CFE4E8F2E06491EF0121966623C2
:1048700031F087E891E10E94D30DFE01F5CFDF9181
:10488000CF910895CF93DF938093C603E7E7FEE0CF
:104890006491EF012196662331F087E891E10E944F
:1048A000D30DFE01F5CF6091C60370E08AE996E072
:1048B0000E944C816AE087E891E1DF91CF910C94EE
:1048C000D30DCF93DF930E947B10E0918D05F0E034
:1048D000EF5AFC4F80818823A1F0E8E7F2E0649171
:1048E000EF012196662331F087E891E10E94D30D14
:1048F000FE01F5CF6AE087E891E1DF91CF910C945A
:10490000D30DDF91CF910895CF92DF92EF92FF9276
:10491000CF93DF9320911901222309F485C0EC0184
:10492000C090C903D090CA03E090CB03F090CC03B1
:10493000A7019601688179818A819B810E949FA34A
:1049400087FF04C0C882D982EA82FB82C090CD036F
:10495000D090CE03E090CF03F090D003A701960152
:104960006C817D818E819F810E949FA387FF04C0FF
:10497000CC82DD82EE82FF82C090D103D090D20340
:10498000E090D303F090D403A70196016885798560
:104990008A859B850E949FA387FF04C0C886D9860D
:1049A000EA86FB86C0900D01D0900E01E0900F01C9
:1049B000F0901001A7019601688179818A819B811D
:1049C0000E9441A5181624F4C882D982EA82FB828B
:1049D000C0901101D0901201E0901301F0901401E9
:1049E000A70196016C817D818E819F810E9441A5E6
:1049F000181624F4CC82DD82EE82FF82C09015016D
:104A0000D0901601E0901701F0901801A7019601CF
:104A1000688579858A859B850E9441A5181624F4AE
:104A2000C886D986EA86FB86DF91CF91FF90EF900A
:104A3000DF90CF9008952F923F924F925F926F92A6
:104A40007F928F929F92AF92BF92CF92DF92EF921E
:104A5000FF920F931F93CF93DF9300D000D000D02D
:104A6000CDB7DEB78C012091D5033091D6034091AC
:104A7000D7035091D803DC016D917D918D919C916C
:104A80000E9427A36B017C0180918503909186038E
:104A9000BC01990F880B990B0E943EA49B01AC01AD
:104AA000C701B6010E9427A36B017C0140918903D5
:104AB00050918A03BA01550F880B990B0E943EA4AE
:104AC0009B01AC01C701B6010E94A3A34B015C018D
:104AD0002091D9033091DA034091DB035091DC033C
:104AE000F80164817581868197810E9427A36B01FB
:104AF0007C018091870390918803BC01990F880BFA
:104B0000990B0E943EA49B01AC01C701B6010E9413
:104B100027A36B017C0180918B0390918C03BC01D6
:104B2000990F880B990B0E943EA49B01AC01C70111
:104B3000B6010E94A3A36B017C01C501B4010E94D0
:104B400079A42B013C0120E030E0A9010E949FA341
:104B500087FD11C020E030E040E050E4C301B20125
:104B60000E9441A5181654F0C301B2010E940BA483
:104B70007C836B8307C01C821B8204C022E030E070
:104B80003C832B83C701B6010E9479A42B013C0111
:104B900020E030E0A9010E949FA387FD16C020E01D
:104BA00030E040E050E4C301B2010E9441A5181674
:104BB0000CF4FAC0C301B2010E940BA48B018B81DB
:104BC0009C81181619067CF008C02B813C811216B6
:104BD00013060CF4E3C000E010E02B803C809FEF54
:104BE000291A390A03C0B2E02B2E312C10161106F7
:104BF0001CF0D8011196E7C0E2E0F0E0FA83E98307
:104C00002B813C81B901330F880B990B0E943EA484
:104C10009B01AC01C501B4010E9427A34B015C01BB
:104C2000B801012E000C880B990B0E943EA49B0139
:104C3000AC01C701B6010E9427A36B017C0120E0F3
:104C400030E0A901C501B4010E949FA387FF03C002
:104C5000812C912C540120E030E0A901C701B6015C
:104C60000E949FA387FF03C0C12CD12C76016B81CA
:104C70007C81660F771F8B819C81680F791FFB01F8
:104C8000E00FF11FEE0FFF1FEE0FFF1FEF59FC4F5C
:104C90004080518062807380C101880F991F280E67
:104CA000391EF101E00FF11FEE0FFF1FEE0FFF1F86
:104CB0009F012F593C4FD9018D919D910D90BC9131
:104CC000A02D8B839C83AD83BE83E981FA816E0F17
:104CD0007F1F660F771F660F771F6F597C4FA301E9
:104CE0009201DB016D917D918D919C910E9427A392
:104CF000A70196010E9475A59B01AC01C301B201F9
:104D00000E9428A32B013C01E981FA812E0E3F1E4F
:104D1000F101EE0FFF1FEE0FFF1FEF59FC4F2B812C
:104D20003C814D815E8160817181828193810E948D
:104D300027A3A70196010E9475A59B01AC016B8179
:104D40007C818D819E810E9428A3A30192010E94F3
:104D500027A39B01AC01C501B4010E9475A59B016D
:104D6000AC01C301B2010E9428A326960FB6F894A5
:104D7000DEBF0FBECDBFDF91CF911F910F91FF908E
:104D8000EF90DF90CF90BF90AF909F908F907F90EB
:104D90006F905F904F903F902F90089592E0292E52
:104DA000312C00E010E025CF8B819C81181619066C
:104DB0001CF002E010E011CF82E0282E312C02E03E
:104DC00010E0A2E0B0E0BA83A9831ACFCF93DF93BB
:104DD00080E090E00E94C389C5E5D3E068837983D1
:104DE0008A839B8381E090E00E94C3896C837D83EA
:104DF0008E839F8382E090E00E94C38968877987D1
:104E00008A879B87DF91CF910895CF93DF93EC0141
:104E1000DDDF85E593E00E949170C436D10551F441
:104E20008CE0E5E5F3E0ADEAB5E001900D928A95FE
:104E3000E1F711C0CC0FDD1FCC0FDD1FFE01E355E4
:104E4000FA4FCB5ADC4F88819981AA81BB8180833C
:104E50009183A283B383DF91CF910895882369F072
:104E60002091890330918A03232BB1F020918B0389
:104E700030918C03232B09F408959091980A891797
:104E800059F08093980A811103C082E090E0BDCF71
:104E90008DEA95E00C949170089580E0DFDFE9E8F9
:104EA000F3E01382128211821082E5E8F3E01382AC
:104EB000128211821082E1E6F3E080E090E0A0EC43
:104EC000BFE780839183A283B38384839583A68382
:104ED000B78380879187A287B38784879587A687C2
:104EE000B787808B918BA28BB38B848B958BA68B92
:104EF000B78B808F918FA28FB38F848F958FA68F62
:104F0000B78F80A391A3A2A3B3A30895EF92FF92BA
:104F10000F931F93CF93DF9300D000D0CDB7DEB7B0
:104F20000E94558980E09ADF0E948F1011E0109353
:104F3000350188E50E94DE13E82E89E50E94DE1324
:104F4000082F8AE50E94DE13F82EE11004C001113B
:104F500004C0182705C0011102C010E001C0182FBD
:104F600080E1EDEAF5E0ADE9B5E001900D928A95BA
:104F7000E1F7111105C0E11003C0002309F440C09E
:104F800020E030E040EA50E46091DD037091DE0300
:104F90008091DF039091E0030E9428A36093A50510
:104FA0007093A6058093A7059093A8052091B50559
:104FB0003091B6054091B7055091B8050E9441A5C2
:104FC00018165CF419821A821B821C82BE016F5F64
:104FD0007F4F85EA95E00E944016111105C0E1104F
:104FE00003C0011107C00CC080E090E00E9485174B
:104FF0001123B9F381E090E00E948517111102C0DE
:10500000FF2021F082E090E00E9485170E94871126
:1050100080915B0A809335010E94AE100E946F0F51
:105020000F900F900F900F90DF91CF911F910F91E4
:10503000FF90EF900895CF92DF92EF92FF926B0175
:105040007C016093940A7093950A8093960A9093DA
:10505000970A2DEB37E346E855EB0E9441A587FD03
:105060000AC02DEB37E346E855E3C701B6010E94BD
:105070009FA318164CF4A701960160E070E080E849
:105080009FE30E94A3A303C060E070E0CB016093A4
:10509000900A7093910A8093920A9093930A809158
:1050A000980A882339F082E090E0FF90EF90DF903B
:1050B000CF90ABCEFF90EF90DF90CF9008951F93ED
:1050C000CF93DF9386E50E94DE13882341F0809121
:1050D000890390918A03892B11F00E94D90F83E5EF
:1050E0000E94DE13882329F00E94D013C82FB6DE59
:1050F00001C0C0E08AE50E94DE13882319F00E94F7
:10510000481399DF1091980AC11103C0E7E7FEE048
:105110001CC01111FBCFEDE7FEE06491EF01219679
:10512000662331F087E891E10E94D30DFE01F5CFAF
:10513000E4E2F3E06491EF012196662339F387E816
:1051400091E10E94D30DFE01F5CF6491EF0121960C
:10515000662331F087E891E10E94D30DFE01F5CF7F
:10516000111103C069EC71E002C065EC71E086E1E9
:1051700093E00E9424816AE087E891E1DF91CF917A
:105180001F910C94D30D0E94DB890E94558984E6FF
:1051900090E03BDE0C9487112F923F924F925F92EA
:1051A0006F927F928F929F92AF92BF92CF92DF9237
:1051B000EF92FF920F93CF93DF93CDB7DEB7649753
:1051C0000FB6F894DEBF0FBECDBF2B013C014901E5
:1051D0005A0117018091300190913101A091320163
:1051E000B0913301898B9A8BAB8BBC8B60E070E004
:1051F00080EA90E40E944B16809104019091050191
:10520000A0910601B0910701809330019093310184
:10521000A0933201B093330119821A821B821C823F
:105220008D829E82AF82B88620E030E040EA51E471
:10523000C301B2010E9427A369877A878B879C8765
:10524000AE014F5F5F4FBE016B5F7F4FCE0109968E
:105250000E94471681E00E943C17882339F0C12C38
:10526000D12C80ECE82E8FE7F82EFBC00E947B103B
:1052700020E030E040EA50E46091DD037091DE030D
:105280008091DF039091E0030E9428A36B017C01D1
:1052900069877A878B879C8780918D0390918E0395
:1052A000A0918F03B09190038D879E87AF87B88BB5
:1052B00020E030E0A901BC01CD010E949FA387FF3F
:1052C0000CC02D853E854F855889C701B6010E94C7
:1052D00027A369877A878B879C872091B5053091B2
:1052E000B6054091B7055091B80569857A858B85DB
:1052F0009C850E949FA387FF0FC080E090E0A0E8FC
:10530000B0E489839A83AB83BC83BE016F5F7F4F18
:10531000CE0109960E9440168BEA9AEAAAEABFE3F8
:105320008D839E83AF83B88720E030E040E253E472
:105330006091DD037091DE038091DF039091E003C3
:105340000E9427A369837A838B839C83BE016B5F52
:105350007F4FCE0101960E94401610925A0A82E0B9
:1053600090E053DD0E94871120918D0330918E03D0
:1053700040918F03509190036091B5057091B605EF
:105380008091B7059091B8050E9428A36B017C011C
:10539000011107C060E070E080EA90E40E944B16C3
:1053A00005C080E00E943C17811159CF93E0291677
:1053B00031040CF44AC0E5EFF6E064911F01AFEF51
:1053C0002A1A3A0A662331F087E891E10E94D30D48
:1053D000F101F3CF23E030E0B301A20187E891E1CE
:1053E0000E94D10DE0EFF6E064913F01BFEF6B1A30
:1053F0007B0A662331F087E891E10E94D30DF30127
:10540000F3CF23E030E0B501A40187E891E10E94E9
:10541000D10DEBEEF6E064915F018FEFA81AB80AA8
:10542000662331F087E891E10E94D30DF501F3CFB7
:1054300023E030E0B701A60187E891E10E94D10D99
:105440006AE087E891E10E94D30D89899A89AB8946
:10545000BC898093300190933101A0933201B093C5
:105460003301C701B60164960FB6F894DEBF0FBED4
:10547000CDBFDF91CF910F91FF90EF90DF90CF9054
:10548000BF90AF909F908F907F906F905F904F9064
:105490003F902F9008954F925F926F927F928F92DC
:1054A0009F92AF92BF92CF92DF92EF92FF920F93B3
:1054B0001F93CF93DF93CDB7DEB72C970FB6F89439
:1054C000DEBF0FBECDBF88E50E94DE13882319F032
:1054D0000E9448130EC020E030E040EA51E46091A1
:1054E000AD057091AE058091AF059091B0050E9419
:1054F00028A32B013C0189E50E94DE13882319F0C3
:105500000E9448130DC020E030E0A9016091B10570
:105510007091B2058091B3059091B4050E9428A3C3
:105520004B015C0149825A826B827C826D837E834F
:105530008F83988720E030E0A9016091DD037091AE
:10554000DE038091DF039091E0030E9428A3698726
:105550007A878B879C8761E0CE0101960E94A7190C
:10556000882309F491C083E50E94DE13882321F08B
:105570000E94D013082F01C001E080E06FDC0E9480
:105580008F10EE24E394F12CA5019401C301B20124
:1055900003DE6B017C01E3EBF5E064918F010F5FAB
:1055A0001F4F662331F087E891E10E94D30DF80187
:1055B000F4CF2CEA35EC47E257E3C301B2010E9475
:1055C00028A3AB01BC0122E030E087E891E10E9412
:1055D000D10DEEEAF5E064918F010F5F1F4F662356
:1055E00031F087E891E10E94D30DF801F4CF2CEA65
:1055F00035EC47E257E3C501B4010E9428A3AB0193
:10560000BC0122E030E087E891E10E94D10DE9EA97
:10561000F5E064918F010F5F1F4F662331F087E83B
:1056200091E10E94D30DF801F4CF2CEA35EC47E26A
:1056300057E3C701B6010E9428A3AB01BC0122E0D9
:1056400030E087E891E10E94D10D6AE087E891E1BE
:105650000E94D30D0E94AE102C960FB6F894DEBFB8
:105660000FBECDBFDF91CF911F910F91FF90EF90B3
:10567000DF90CF90BF90AF909F908F907F906F9072
:105680005F904F900C946F0F2C960FB6F894DEBF7E
:105690000FBECDBFDF91CF911F910F91FF90EF9083
:1056A000DF90CF90BF90AF909F908F907F906F9042
:1056B0005F904F9008952F923F924F925F926F921A
:1056C0007F928F929F92AF92BF92CF92DF92EF9292
:1056D000FF920F931F93CF93DF93CDB7DEB7EC9775
:1056E0000FB6F894DEBF0FBECDBF69AB7AAB8BAB04
:1056F0009CAB8A0119018091AD059091AE05A091F6
:10570000AF05B091B0058D8B9E8BAF8BB88F80911C
:10571000D5039091D603A091D703B091D80389A364
:105720009AA3ABA3BCA3A0918503B0918603BEA3AB
:10573000ADA3BD01BB0F880B990B0E943EA42B01AA
:105740003C012091890330918A0338A72FA3B90126
:10575000330F880B990B0E943EA4698B7A8B8B8B3D
:105760009C8B29A13AA14BA15CA16D897E898F896F
:10577000988D0E9427A3A30192010E9427A3298943
:105780003A894B895C890E94A3A30E940BA46DAB4C
:105790007EAB8FAB98AF8091B1059091B205A0918F
:1057A000B305B091B405898F9A8FAB8FBC8FC09031
:1057B000D903D090DA03E090DB03F090DC03A091F2
:1057C0008703B0918803BAA7A9A7BD01BB0F880BB7
:1057D000990B0E943EA44B015C0120918B033091F8
:1057E0008C033CA72BA7B901330F880B990B0E94A0
:1057F0003EA46DA77EA78FA798ABA7019601698DE0
:105800007A8D8B8D9C8D0E9427A3A50194010E9407
:1058100027A32DA53EA54FA558A90E94A3A30E948A
:105820000BA469AF7AAF8BAF9CAF80919D0590912F
:105830009E05A0919F05B091A0058D8F9E8FAF8F83
:10584000B8A329A13AA14BA15CA1BC01CD010E9442
:1058500027A3A30192010E9427A329893A894B8992
:105860005C890E94A3A30E940BA42B013C018091A0
:10587000A1059091A205A091A305B091A405898BE3
:105880009A8BAB8BBC8BA7019601BC01CD010E940A
:1058900027A3A50194010E9427A32DA53EA54FA5EE
:1058A00058A90E94A3A30E940BA42DA93EA91216D9
:1058B000130614F421E030E0F90137FF02C0E0E004
:1058C000F0E029AD3AAD1216130614F421E030E0F1
:1058D00037FF02C020E030E0A2011414150414F4D4
:1058E00041E050E02A0157FF02C0412C512CAB018E
:1058F0001616170614F441E050E057FF02C040E0CE
:1059000050E0E415F50519F52417350719F569A9CF
:105910007AA98BA99CA90E94DC14EC960FB6F89486
:10592000DEBF0FBECDBFDF91CF911F910F91FF90D2
:10593000EF90DF90CF90BF90AF909F908F907F902F
:105940006F905F904F903F902F900C9437154E16AC
:105950005F0654F0742D421753070CF46DC1642F89
:105960004E165F0639F47FC0421753070CF062C130
:1059700061E071E0872F072E000C990BAA24A394F5
:10598000B12C02C0AA0CBB1C7A95E2F7F501E0230A
:10599000F123EF2B09F467C0EDE9F5E0DE01119684
:1059A00020E101900D922A95E1F7AFA1B8A5A89F3B
:1059B000B001A99F700DB89F700D11242DA13EA1BB
:1059C000620F731F072E000C880B990B0E943EA4D8
:1059D00029A13AA14BA15CA10E9428A360939D0537
:1059E00070939E0580939F059093A0052D893E8915
:1059F0004F89588D0E9427A36B017C012D893E8918
:105A00004F89588D6D8D7E8D8F8D98A10E9427A313
:105A10009B01AC01C701B6010E94A3A36B017C01ED
:105A2000298D3A8D4B8D5C8D69897A898B899C890A
:105A30000E9427A3A70196010E9475A59B01AC01B6
:105A4000698D7A8D8B8D9C8D0E9428A36093A10512
:105A50007093A2058093A3059093A405A094B0949D
:105A60000A211B217AC04217530709F450CF862F11
:105A7000062E000C990BAA24A394B12C02C0AA0CE8
:105A8000BB1C6A95E2F7950122213321232B09F4EF
:105A90003ECFEDE9F5E0DE01119620E101900D9297
:105AA0002A95E1F7ABA5BCA5A89FB001A99F700DF1
:105AB000B89F700D112429A53AA5620F731F072EF8
:105AC000000C880B990B0E943EA4A70196010E942E
:105AD00028A36093A1057093A2058093A3059093DA
