:100000000C94B9110C94E3110C94E3110C94E311CA
:100010000C94E3110C94E3110C94E3110C94E31190
:100020000C94E3110C94E3110C9487DC0C9404DD24
:100030000C94E3110C94E3110C94E3110C94E31170
:100040000C94E3110C941D8C0C94E3110C94E311AB
:100050000C94E3110C94E3110C94059E0C94E6DBD4
:100060000C94E3110C94E3110C94E3110C94E31140
:100070000C94E3110C94E3110C94E3110C94E31130
:100080000C94E3110C94E3110C94E3110C94E31120
:100090000C94DFD70C94E31175D9A1D9C3D9C3D976
:1000A000C3D9C3D9C3D9C3D9C3D9C3D9C3D9C3D970
:1000B000C3D9C3D9B9D9B1D9A9D9C3D9C3D9C3D996
:1000C000C3D9C3D9C3D9C3D99BD981D989D993D924
:1000D0004E414E494E495459494E46CDCCCC3D0A2D
:1000E000D7233C17B7D13877CC2B329595E6241F10
:1000F000B14F0A000020410000C84200401C4620C9
:10010000BCBE4CCA1B0E5AAEC59D74446F6E6520B2
:10011000736176696E672066696C652E0A004D32E0
:1001200039002020506C616E6E657242756666659E
:100130007242797465733A20002046726565204DDD
:10014000656D6F72793A2000436F6D70696C6564FC
:100150003A2041707220203320323031380A00209A
:100160007C20417574686F723A202854686F6D6105
:10017000732C20342F32302F32303137290A00329D
:100180003031362D31322D30362031323A30300098
:10019000204C61737420557064617465643A20006A
:1001A000312E312E302D52434275674669780A0050
:1001B0004D61726C696E0020536F66747761726571
:1001C0002052657365740A00205761746368646F18
:1001D000672052657365740A002042726F776E2043
:1001E0006F75742052657365740A002045787465D4
:1001F000726E616C2052657365740A00506F77658A
:100200007255700A0073746172740A005072696EDC
:100210007465722068616C7465642E206B696C6C07
:1002200028292063616C6C6564210A004B494C4CA1
:1002300045442E20004B494C4C2063617573656426
:1002400020627920746F6F206D75636820696E611C
:1002500063746976652074696D65202D20637572FD
:1002600072656E7420636F6D6D616E643A20006F0D
:100270006B00526573656E643A20004E6F206361B7
:100280007365206C696768740A003A20007A5F6DB4
:10029000696E3A20202D3230207A5F6D61783A20E5
:1002A000203230005A204F666673657420004F6616
:1002B0006673657473206170706C69656400457263
:1002C000723A20546F6F206661722100546F6F2064
:1002D0006661722066726F6D207265666572656E0A
:1002E000636520706F696E740A004D34323120727C
:1002F0006571756972656420706172616D657465A0
:100300007273206D697373696E670A004D65736857
:1003100020706F696E742063616E6E6F7420626509
:10032000207265736F6C7665640A00426564204CC8
:100330006576656C696E6720004661696C6564204E
:10034000746F20656E61626C6520426564204C6547
:1003500076656C696E670A0020643A0020693A008D
:1003600020703A0020643A0020693A0020703A0078
:10037000205A00205900580020204D61783A200072
:10038000205A00205900580020204D696E3A200064
:100390004F6666004F6E2000536F667420656E6472
:1003A00073746F70733A200053657474696E6720BC
:1003B00054726176656C20416363656C657261742B
:1003C000696F6E3A200053657474696E67205265D8
:1003D000747261637420416363656C6572617469F2
:1003E0006F6E3A200053657474696E6720507269AD
:1003F0006E7420416363656C65726174696F6E3AF7
:10040000200053657474696E67205072696E7420A1
:10041000616E642054726176656C20416363656C23
:1004200065726174696F6E3A20004D313435205326
:100430003C696E6465783E206F7574206F6620722B
:10044000616E67652028302D31290A004649524DDA
:10045000574152455F4E414D453A4D61726C696E50
:1004600020312E312E302D52434275674669782057
:10047000284769746875622920534F555243455F78
:10048000434F44455F55524C3A68747470733A2F29
:100490002F6769746875622E636F6D2F4D61726C82
:1004A000696E4669726D776172652F4D61726C6914
:1004B0006E2050524F544F434F4C5F564552534954
:1004C0004F4E3A312E30204D414348494E455F54FE
:1004D0005950453A53696D706C65204D6574616C77
:1004E0002045585452554445525F434F554E543A57
:1004F0003220555549443A63656465326132662D50
:10050000343161322D343734382D396231322D6334
:1005100035356336326633363766660A0053696DA1
:10052000706C65204D6574616C204F66662E0042CC
:10053000656420646F6E652E003F0A0020573A0004
:100540004265642048656174696E672E0048656184
:1005500074696E6720646F6E652E003F0A00205735
:100560003A00452569202573006F6B004B494C4CC0
:1005700045442E20004543484F00494E464F004514
:1005800052524F52530044525952554E00434F4D10
:100590004D554E49434154494F4E006F66660075B4
:1005A000057A057F0586058D0544454255473A0085
:1005B0004525692025730050726F74656374656406
:1005C0002050696E0A002569730025696D20256930
:1005D00073002569682025696D20256973002569E8
:1005E00064202569682025696D20256973002569C7
:1005F0007920256964202569682025696D20256991
:1006000073005072696E742074696D653A200045FC
:100610006E642066696C65206C6973740A004265BB
:1006200067696E2066696C65206C6973740A004E98
:100630006F206D6F76652E0053696D706C65204D6F
:100640006574616C2072656164792E005265737502
:100650006D696E67207072696E74005761697420ED
:10066000666F7220757365722E2E2E00205A3A2006
:100670000020593A200042656420583A200042691F
:100680006C696E656172204C6576656C696E672079
:10069000477269643A0A0052756E6E696E67206926
:1006A0006E204452592D52554E206D6F64650A00DC
:1006B000473239204175746F20426564204C65765D
:1006C000656C696E670A0028422961636B002846E1
:1006D00029726F6E74002852296967687400284C6B
:1006E00029656674003F2856296572626F7365201C
:1006F0004C6576656C20697320696D706C617573EB
:1007000069626C652028302D34292E0A004261640C
:10071000205A2076616C75650A004E6F2062696C04
:10072000696E65617220677269640A0020453A004B
:10073000205A3A0020593A00583A005761726E69BF
:100740006E673A20486F6D696E672042756D702044
:1007500044697669736F72203C20310A00536C65DE
:1007600065702E2E2E00416374697665204578747D
:1007700072756465723A20002042403A0020403A87
:1007800000202F0020423A00202F0020543A002061
:10079000706F736974696F6E206F7574206F662057
:1007A00072616E67652E0A003F50726F62652000AD
:1007B000556E6B6E6F776E20636F6D6D616E643A10
:1007C000202200205A3A200020593A200042656435
:1007D00020583A2000486F6D6520257325732573D6
:1007E000206669727374002066697273740A005A15
:1007F0000059005800486F6D65200020496E7661F1
:100800006C69642065787472756465722000534465
:100810002072656164206572726F720A00446F6EA7
:1008200065207072696E74696E672066696C650A0E
:10083000004B494C4C45442E200053544F505045DA
:10084000442E20005072696E7465722073746F704C
:100850007065642064756520746F206572726F72B4
:10086000732E2046697820746865206572726F72F5
:1008700020616E6420757365204D39393920746F9D
:1008800020726573746172742E202854656D7065D2
:100890007261747572652069732072657365742E58
:1008A00020536574206974206166746572207265D6
:1008B0007374617274696E67290A004E6F204C6907
:1008C0006E65204E756D626572207769746820636D
:1008D0006865636B73756D2C204C617374204C6973
:1008E0006E653A20004E6F20436865636B73756DCB
:1008F0002077697468206C696E65206E756D62651D
:10090000722C204C617374204C696E653A20006330
:100910006865636B73756D206D69736D6174636871
:100920002C204C617374204C696E653A20004C6930
:100930006E65204E756D626572206973206E6F74EE
:10094000204C617374204C696E65204E756D626534
:10095000722B312C204C617374204C696E653A20E7
:10096000004D31313000656E7175657565696E6772
:10097000202200FF01FF0000A0400000A040000076
:10098000004000001643000013430000164300001F
:1009900000000000134300000000000016430000A8
:1009A0001343000016430000000000000000000098
:1009B00000007C3C3E5E2B3D3F2F5B5D3B2C2A22A2
:1009C0005C004D3331004D383420582059205A20D6
:1009D000450043616E6E6F7420656E74657220739E
:1009E00075626469723A20006175746F25692E67BB
:1009F000006572726F722077726974696E67207415
:100A00006F2066696C650A004E6F74205344207035
:100A100072696E74696E670A005344207072696E61
:100A200074696E672062797465200044656C657432
:100A3000696F6E206661696C65642C2046696C651F
:100A40003A200046696C652064656C657465643A9B
:100A5000006F70656E206661696C65642C20466964
:100A60006C653A200057726974696E6720746F2054
:100A700066696C653A20006F70656E206661696C0E
:100A800065642C2046696C653A20006F70656E20A5
:100A90006661696C65642C2046696C653A20004685
:100AA000696C652073656C65637465640A00205326
:100AB000697A653A200046696C65206F70656E65DD
:100AC000643A20006F70656E206661696C65642C05
:100AD0002046696C653A20002066696C653A200002
:100AE0004E6F7720002220706F7300222070617299
:100AF000656E743A2200535542524F5554494E4543
:100B00002043414C4C207461726765743A22004B5B
:100B1000494C4C45442E2000747279696E672074EC
:100B20006F2063616C6C207375622D67636F646501
:100B30002066696C6573207769746820746F6F2014
:100B40006D616E79206C6576656C732E204D415811
:100B5000206C6576656C2069733A004D3234004D27
:100B600032332025730053442063617264206F6B1D
:100B70000A006F70656E526F6F74206661696C65F4
:100B8000640A00766F6C756D652E696E69742066F7
:100B900061696C65640A00534420696E697420665B
:100BA00061696C0A0043616E6E6F74206F70656ED0
:100BB00020737562646972200020204D3835312021
:100BC0005A005A2D50726F6265204F6666736574C5
:100BD00020286D6D293A0A00204400204900202079
:100BE0004D33303420500020440020490020204D57
:100BF0003330312050005049442073657474696E5D
:100C000067733A0A00204600204200204800202056
:100C10004D3134352053004D6174657269616C202B
:100C200068656174757020706172616D657465725C
:100C3000733A0A00205A0020204D343230205300ED
:100C40004175746F20426564204C6576656C696EF1
:100C5000673A0A00205A0020590020204D323036D1
:100C6000205800486F6D65206F66667365743A0A98
:100C700000204500205A0020590020580020420042
:100C800020540020204D32303520530041647661DD
:100C90006E6365643A20533C6D696E5F666565649A
:100CA000726174653E20543C6D696E5F747261764A
:100CB000656C5F66656564726174653E20423C6D7B
:100CC000696E5F7365676D656E745F74696D655F8E
:100CD0006D733E20583C6D61785F78795F6A65720C
:100CE0006B3E205A3C6D61785F7A5F6A65726B3E3D
:100CF00020453C6D61785F655F6A65726B3E0A00F6
:100D000020540020520020204D3230342050004129
:100D10006363656C65726174696F6E2028756E69B6
:100D200074732F7332293A20503C7072696E745F6D
:100D3000616363656C3E20523C72657472616374DA
:100D40005F616363656C3E20543C74726176656CD0
:100D50005F616363656C3E0A00204500205A0020F5
:100D6000590020204D3230312058004D6178696D96
:100D7000756D20416363656C65726174696F6E2087
:100D800028756E6974732F7332293A0A0020450062
:100D9000205A0020590020204D3230332058004D79
:100DA0006178696D756D20666565647261746573DF
:100DB0002028756E6974732F73293A0A0020450044
:100DC000205A0020590020204D39322058005374F9
:100DD0006570732070657220756E69743A0A002020
:100DE000204D3230302044300A0020204D32303047
:100DF00020543120440020204D3230302044002047
:100E000044697361626C65640A0046696C616D6572
:100E10006E742073657474696E67733A002020479E
:100E20003231203B20556E69747320696E206D6DE0
:100E30000A0A0048617264636F64656420446566F1
:100E400061756C742053657474696E6773204C6FA0
:100E5000616465640A00454550524F4D20636865E2
:100E6000636B73756D206D69736D617463680A00DF
:100E7000206279746573290A002073746F72656447
:100E80002073657474696E67732072657472696526
:100E9000766564202800204D61726C696E3D563382
:100EA00035290A0028454550524F4D3D00454550D3
:100EB000524F4D2076657273696F6E206D69736D48
:100EC000617463682000206279746573290A005395
:100ED000657474696E67732053746F72656420283B
:100EE000004572726F722077726974696E67207440
:100EF0006F20454550524F4D210A007A5F6D696E53
:100F00003A2000795F6D61783A2000785F6D696EF4
:100F10003A20005265706F7274696E6720656E6466
:100F200073746F70207374617475730A00456E6416
:100F300073746F707320256320256320256320253B
:100F40006300205A3A0020593A0020583A00656E52
:100F50006473746F7073206869743A200065636805
:100F60006F3A004572726F723A00205A3A00205967
:100F70003A0020436F756E7420583A004D38342083
:100F8000582059205A20450024F4D43050C38E20D4
:100F9000C2A24017828B7011127A910D816CD90A0E
:100FA000A861E108C7586607615143061E4B5D05FD
:100FB000C145A7041A411104093D98037139310351
:100FC0004036DB0265339102D4305402802E1D027C
:100FD000632CEE01752AC501B028A00110278101FC
:100FE0008F2564012B244B01E0223401AC211F0129
:100FF0008D200D01801FFC00841EED00971DDF0079
:10100000B81CD200E61BC600201BBC00641AB2004C
:10101000B219A8000A19A0006A189900D117910006
:1010200040178B00B516840031167E00B315790089
:101030003A157300C7146F0058146A00EE13660067
:101040008813630025135E00C7125B006C12570003
:1010500015125400C111510070114F0021114B00A5
:10106000D61049008D10470046104400021042007F
:10107000C00F4000800F3E00420F3C00060F3B00B7
:10108000CB0E3800930E37005C0E3500270E34006F
:10109000F30D3200C10D3100900D3000600D2E00B7
:1010A000320D2D00050D2C00D90C2B00AE0C2900A3
:1010B000850C29005C0C2700350C27000E0C26003F
:1010C000E80B2400C40B2400A00B23007D0B23009D
:1010D0005A0B2100390B2100180B2000F80A1F00C1
:1010E000D90A1E00BB0A1E009D0A1D00800A1D00B1
:1010F000630A1C00470A1B002C0A1B00110A1A0075
:10110000F7091A00DD091900C4091900AB09190013
:10111000920917007B091800630917004C09160093
:1011200036091600200916000A091500F5081500F1
:10113000E0081400CC081400B8081400A408140037
:10114000900813007D0812006B0813005808120065
:10115000460812003408110023081100120811007B
:1011600001081100F0071000E0071000D007100080
:10117000C0071000B0070F00A107100091070E0074
:1011800083070F0074070F0065070E0057070E0056
:1011900049070E003B070D002E070E0020070D002B
:1011A00013070D0006070D00F9060C00ED060D00F3
:1011B000E0060C00D4060C00C8060C00BC060C00AF
:1011C000B0060C00A4060B0099060C008D060B005F
:1011D00082060B0077060B006C060B0061060A0006
:1011E00057060B004C060A0042060A0038060A00A1
:1011F0002E060A0024060A001A060A001006090034
:1012000007060A00FD050900F4050900EB050900C1
:10121000E2050900D9050900D0050900C705090044
:10122000BE050900B5050800AD050800A5050900C3
:101230009C050800940508008C050800840508003A
:101240007C050800740508006C05070065050800AA
:101250005D050700560508004E0507004705070015
:101260004005080038050700310507002A0507007A
:10127000230507001C050600160507000F050700DB
:101280000805060002050700FB040600F504070038
:10129000EE040600E8040600E2040700DB04060092
:1012A000D5040600CF040600C9040600C3040600E6
:1012B000BD040600B7040600B1040500AC04060036
:1012C000A6040600A00405009B0406009504050082
:1012D000900406008A0405008504050080040600C9
:1012E0007A04050075040500700405006B04050010
:1012F00066040500610405005C0405005704050050
:10130000520405004D04050048040500430405008F
:101310003E0404003A0405003504050030040400CE
:101320002C04050027040400230405001E04040007
:101330001A04040016040500110404000D0404003E
:10134000090405000404040000040400FC03040074
:10135000F8030400F4030400F0030400EC030400A9
:10136000E8030400E4030400E0030400DC030400D9
:10137000D8030400D4030400D0030400CC03040009
:10138000C8030300C503030024F404D9201BC40CC4
:101390005C0E9804C4095F0265077101F405F90049
:1013A000FB04B30048048700C103690058035500DB
:1013B00003034500BE023A008402310053022A00B2
:1013C0002902250004022000E4011C00C8011900C4
:1013D000AF0117009801140084011300710110007F
:1013E0006101100051010E0043010D0036010B0098
:1013F0002B010B0020010B00150109000C01090055
:1014000003010800FB000800F3000800EB000700E0
:10141000E4000600DE000600D8000600D200060048
:10142000CC000500C7000500C2000500BD00040097
:10143000B9000400B5000400B1000400AD000400D0
:10144000A9000400A5000300A20003009F000400FF
:101450009B00030098000300950002009300030026
:10146000900003008D0002008B0003008800020042
:101470008600020084000300810002007F00020059
:101480007D0002007B00020079000200770001006D
:101490007600020074000200720001007100020078
:1014A0006F0002006D0001006C0002006A00010084
:1014B000690002006700010066000100650001008C
:1014C0006400020062000100610001006000010090
:1014D0005F0002005D0001005C0001005B00010094
:1014E0005A00010059000100580001005700010096
:1014F0005600010055000100540001005300000097
:101500005300010052000100510001005000010091
:101510004F0001004E0000004E0001004D00010090
:101520004C0001004B0000004B0001004A0001008C
:101530004900010048000000480001004700010088
:101540004600000046000100450000004500010083
:10155000440001004300000043000100420000007D
:101560004200010041000000410001004000010074
:101570003F0000003F0001003E0000003E0001006F
:101580003D0000003D0001003C0000003C00000068
:101590003C0001003B0000003B0001003A0000005D
:1015A0003A00010039000000390001003800000055
:1015B000380000003800010037000000370001004B
:1015C0003600000036000000360001003500000043
:1015D0003500000035000100340000003400000038
:1015E000340001003300000033000000330001002C
:1015F0003200000032000000320001003100000023
:101600003100000031000100300000003000000017
:10161000300001002F0000002F0000002F0000000C
:101620002F0001002E0000002E0000002E000100FF
:101630002D0000002D0000002D0000002D000100F5
:101640002C0000002C0000002C0000002C000100E9
:101650002B0000002B0000002B0000002B000100DD
:101660002A0000002A0000002A0000002A000100D1
:1016700029000000290000002900000029000000C6
:1016800029000100280000002800000028000000B8
:1016900028000000280001002700000027000000AB
:1016A000270000002700000027000100260000009E
:1016B0002600000026000000260000002600010091
:1016C0002500000025000000250000002500000086
:1016D0002500000025000100240000002400000077
:1016E000240000002400000024000100230000006A
:1016F000230000002300000023000000230000005E
:10170000230000002300010022000000220000004E
:101710002200000022000000220000002200010040
:101720002100000021000000210000002100000035
:101730002100000021000000210001002000000025
:101740002000000020000000200000002000000019
:101750002000000020000000200001001F00000009
:101760001F0000001F0000001F0000001F000000FD
:101770001F0000001F0001001E0000001E000000EE
:101780001E0000001E0000002028002920453A000D
:1017900020280029205A3A002028002920593A0000
:1017A00020280020583A00537465707065722063D9
:1017B000757272656E742076616C75657320696EE2
:1017C00020252028416D7073293A0A0054686572FB
:1017D0006D616C2052756E61776179005448455295
:1017E0004D414C2052554E41574159004B494C4CAC
:1017F00045442E2000202D20496E76616C696420BE
:101800006578747275646572206E756D626572209C
:10181000210A0048656174696E67206661696C65BC
:10182000640048656174696E67206661696C65640F
:101830000048656174696E67206661696C65640063
:1018400048656174696E67206661696C6564004D06
:10185000494E54454D5020747269676765726564DE
:10186000004572723A204D494E54454D5020424534
:1018700044004572723A204D494E54454D50004D3A
:10188000415854454D5020747269676765726564AC
:10189000004572723A204D415854454D5020424502
:1018A00044004572723A204D415854454D500062F3
:1018B00065640A002C2073797374656D2073746FEE
:1018C0007070656421204865617465725F49443AAF
:1018D00020004B64200023646566696E6520204407
:1018E000454641554C545F004B69200023646566B2
:1018F000696E65202044454641554C545F004B704D
:10190000200023646566696E652020444546415584
:101910004C545F00504944204175746F74756E6576
:101920002066696E6973686564212050757420743F
:101930006865206C617374204B702C204B692061AA
:101940006E64204B6420636F6E7374616E747320D9
:1019500066726F6D2062656C6F7720696E746F20A0
:10196000436F6E66696775726174696F6E2E680A7F
:1019700000504944204175746F74756E652066612E
:10198000696C6564212074696D656F75740A005017
:101990004944204175746F74756E65206661696C89
:1019A0006564212054656D7065726174757265207F
:1019B000746F6F20686967680A00204B643A2000E2
:1019C000204B693A2000204B703A20000A20436CDB
:1019D000617373696320504944200A002054753AAA
:1019E0002000204B753A2000206D61783A200020BD
:1019F0006D696E3A200020643A20002062696173AC
:101A00003A20001000AD0330016A0150022B017032
:101A1000030A019004F500B005E500D006D800F0F7
:101A200007CE001009C500300ABE00500BB7007089
:101A30000CB100900DAB00B00EA600D00FA200F0CC
:101A4000109D0010129900301395005014920070F0
:101A5000158E0090168B00B0178700D0188400F008
:101A6000198100101B7E00301C7B00501D79007016
:101A70001E7600901F7300B0207000D0216E00F021
:101A8000226B001024690030256600502663007028
:101A900027610090285E00B0295C00D02A5900F030
:101AA0002B5600102D5400302E5100502F4E007038
:101AB000304B0090314800B0324500D0334200F046
:101AC000343E0010363B003037370050383300705A
:101AD000392E00903A2900B03B2300D03C1B00F087
:101AE0003D1100103F0100F03F00001000C902103E
:101AF000012C014001220170011801B0010E01F01A
:101B00000104015002FA00B002F0003003E600D0F8
:101B100003DC009004D2007005C800A006BE0000DF
:101B200008B400B009AA00D00BA000600E960060B7
:101B3000118C000015820020197800C01D6E00A0D5
:101B4000226400B0275A00902C500000314600E07B
:101B5000343C0010383200903A2800603C1E00A04F
:101B60003D1400803E0A00203F0000052E2E000498
:101B700052656672657368004D61696E0046696CF6
:101B80002E204469612E20320046696C2E20446963
:101B9000612E20320046696C2E204469612E20316E
:101BA0000046696C2E204469612E20310045206971
:101BB0006E206D6D33004F6666004F6E2000436FE0
:101BC0006E74726F6C004573746570732F6D6D0069
:101BD0004573746570732F6D6D005A7374657073FF
:101BE0002F6D6D005A73746570732F6D6D0059738E
:101BF000746570732F6D6D005973746570732F6DFC
:101C00006D005873746570732F6D6D005873746533
:101C100070732F6D6D00412D74726176656C00419B
:101C20002D74726176656C00412D7265747261630A
:101C30007400412D7265747261637400416D617846
:101C4000204500416D6178204500416D6178205A42
:101C500000416D6178205A00416D61782059004142
:101C60006D6178205900416D6178205800416D61A7
:101C7000782058005654726176206D696E00565473
:101C8000726176206D696E005654726176206D69BE
:101C90006E00566D696E00566D696E00566D696E08
:101CA00000566D6178204500566D617820450056DC
:101CB0006D6178204500566D6178205A00566D613F
:101CC00078205A00566D6178205A00566D61782050
:101CD0005900566D6178205900566D617820590081
:101CE000566D6178205800566D6178205800566D09
:101CF000617820580056652D6A65726B0056652D17
:101D00006A65726B0056652D6A65726B00567A2D96
:101D10006A65726B00567A2D6A65726B0056792D72
:101D20006A65726B0056792D6A65726B0056792D63
:101D30006A65726B0056782D6A65726B0056782D55
:101D40006A65726B0056782D6A65726B0041636339
:101D5000656C00416363656C005A204F666673656D
:101D600074005A204F666673657400436F6E747218
:101D70006F6C0053746F7265206D656D6F727900C2
:101D800042656400426564004E6F7A7A6C65004E6D
:101D90006F7A7A6C650046616E20737065656400C9
:101DA00046616E2073706565640054656D70657280
:101DB0006174757265005072656865617420414296
:101DC0005320636F6E6600507265686561742050C1
:101DD0004C4120636F6E66005049442D44005049C9
:101DE000442D44005049442D49005049442D490098
:101DF0005049442D50005049442D500020022046A7
:101E00006163740020022046616374002002204D4B
:101E10006178002002204D6178002002204D617819
:101E2000002002204D696E002002204D696E0020C6
:101E300002204D696E004175746F74656D70004FBE
:101E40006666004F6E200046616E207370656564A3
:101E50000046616E207370656564004265640042EF
:101E60006564004E6F7A7A6C65004E6F7A7A6C65A5
:101E700000436F6E74726F6C00526573746F72659D
:101E8000206661696C73616665004C6F6164206DEA
:101E9000656D6F72790053746F7265206D656D6F3B
:101EA000727900447269766520537472656E677446
:101EB000680046696C616D656E74004D6F74696F82
:101EC0006E0054656D7065726174757265004D6168
:101ED000696E004578747275646572320045787475
:101EE000727564657231004578747275646572004C
:101EF0004D6F7665205A004D6F76652059004D6F05
:101F0000766520580050726570617265004D6F767D
:101F10006520302E316D6D004D6F766520316D6D11
:101F2000004D6F76652031306D6D004D6F76652008
:101F300061786973004578747275646572004D6FDD
:101F40007665205A004D6F76652059004D6F766595
:101F50002058004578747275646572320045787453
:101F6000727564657231004D6F7665205A004D6F51
:101F700076652059004D6F7665205800507265686F
:101F80006561742041425300507265686561742038
:101F9000504C4100436F6F6C646F776E004D383466
:101FA0000044697361626C6520737465707065725A
:101FB000730053657420686F6D65206F6666736586
:101FC0007473004C6576656C206265640047323836
:101FD000205A00486F6D65205A004732382059005A
:101FE000486F6D65205900473238205800486F6DA2
:101FF00065205800473238004175746F20686F6D56
:1020000065004D6F76652061786973004D61696E7A
:10201000004C6576656C206265640043616E6365A3
:102020006C004732380A4732390047323900507263
:1020300065686561742041425320426564005072B6
:1020400065686561742041425320456E640050729A
:102050006568656174204142530050726570617219
:1020600065005072656865617420504C412042657E
:1020700064005072656865617420504C4120456E63
:1020800064005072656865617420504C4100507264
:10209000657061726500466C6F77203200466C6F28
:1020A00077203200466C6F77203100466C6F7720C6
:1020B0003100466C6F7700466C6F770046616E208A
:1020C00073706565640046616E20737065656400B9
:1020D00042656400426564004E6F7A7A6C65004E1A
:1020E0006F7A7A6C6500537065656400537065653E
:1020F00064004D61696E004D343238004D3231005C
:10210000496E69742E2053442063617264004E6FDF
:102110002053442063617264004D32310043686192
:102120006E67652053442063617264005072696E6B
:10213000742066726F6D2053440053746F7020706A
:1021400072696E7400526573756D65207072696E88
:1021500074005061757365207072696E7400436F0E
:102160006E74726F6C0050726570617265005475A8
:102170006E6500496E666F2073637265656E005010
:1021800072696E742061626F727465640025753ABD
:102190002530327500253032753A25303275002DE4
:1021A0002D2D005344005A00590058000120000111
:1021B0002000506C65617365207265736574005012
:1021C00052494E5445522048414C544544002D2D0F
:1021D0002D2D2D2D007C4D61726C696E7C002D2D96
:1021E0002D2D2D2D00687474703A2F2F6D61726C37
:1021F000696E66772E6F726700687474703A2F2F5D
:102200006D61726C696E66772E6F726700312E3168
:102210002E302D524342756746697800312E312E9B
:10222000302D524342756746697800000129022922
:10223000042908291029202940298029012C022C51
:10224000012602260426082610262026402680265F
:10225000402C802C01230223042308231023202355
:102260004023802301200220042008201020202069
:1022700040208020102C202C012F022F042F082F0B
:10228000102F202F402F802F7EFE7EFD7EFB7EF7BD
:102290007EEF7EDF7EBF7E7F0001000049231200BB
:1022A0000200000623430003000002230401030987
:1022B00004E8221802030904D0221603030904C209
:1022C000220C0C03310032003300340035000000D2
:1022D00016035500530042002000530065007200B1
:1022E000690061006C00000018035400650065007F
:1022F0006E00730079006400750069006E006F0065
:1023000000000403090409024300020100C032096D
:10231000040000010202010005240010010524014F
:1023200000010424020605240600010705820308B3
:10233000004009040100020A0000000705030240F2
:1023400000000705840240000012010002020000A4
:1023500020C01683040001010203010001C1020133
:1023600080360181360047333D8415AAFDD68AE1C7
:102370004F3311241FBECFEFD0E2DEBFCDBF13E03D
:10238000A0E0B1E0E8ECF9ED01E00BBF02C007907E
:102390000D92AA3BB107D9F722E1AAEBB3E001C045
:1023A0001D92A43DB207E1F711E1C8EBD1E104C0F1
:1023B0002197FE010E9410E5C33BD107C9F70E9497
:1023C000BADF0C94D8EC0C940000FC016591759177
:1023D000859194910895FB0101900020E9F73197D0
:1023E000AF01461B570BDC01ED91FC910280F3819C
:1023F000E02D09940C9418DFCF93DF931F92CDB793
:10240000DEB76983DC01ED91FC910280F381E02D60
:1024100041E050E0BE016F5F7F4F09950F90DF9163
:10242000CF9108952F923F924F925F926F927F9239
:102430008F929F92AF92BF92CF92DF92EF92FF92D4
:102440000F931F93CF93DF93CDB7DEB72C970FB6C3
:10245000F894DEBF0FBECDBFF42E922E082F10E0F1
:10246000862F90E09C878B87D801AA0FBB1FBA8765
:10247000A987FD01E80FF91FEE0FFF1FEE0FFF1FE9
:10248000E35DFB4F60817181828193819B01AC018F
:102490000E9491E4882309F421C16AE088EC92E16A
:1024A000ABDF4F2DFF0C550BC801840F951FBC01EE
:1024B000660F771FEB85FC85E60FF71FEE0FFF1FFA
:1024C000EE0FFF1FE35DFB4FA080B180C280D38081
:1024D000840F951F880F991FEB85FC85E80FF91F66
:1024E000EE0FFF1FEE0FFF1FE35DFB4FE080F1805B
:1024F00002811381292D990C330B4B855C85420F8A
:10250000531FE985FA85E40FF51FEE0FFF1FEE0F4D
:10251000FF1FE35DFB4F9080818072806380240FFA
:10252000351FE985FA85E20FF31FEE0FFF1FEE0F4F
:10253000FF1FE35DFB4F5080418032802380FB0111
:10254000E40FF51FEE0FFF1FEE0FFF1FE35DFB4FC4
:10255000B081B98341814A83A281AB83B381BC83BB
:10256000FC01E20FF31FEE0FFF1FEE0FFF1FE35DF5
:10257000FB4F40814D8381818E8392819F83A38114
:10258000A8879701A801B701C8010E9491E4882398
:1025900021F0E12CF12C00E010E09501A601B5013D
:1025A000C6010E9491E4882311F057016801252D8E
:1025B000342D432D522D652D742D832D922D0E9487
:1025C00091E4882321F0512C412C312C212C292DF0
:1025D000382D472D562D692D782D872D962D0E944B
:1025E00091E4882311F0420131012D813E814F8118
:1025F00058856D817E818F8198850E9491E4882322
:1026000021F01D821E821F82188629813A814B810A
:102610005C8169817A818B819C810E9491E488230D
:1026200041F0BD81B983EE81EA83FF81FB83488558
:102630004C832B853C8589859A85280F391F220F6D
:10264000331F220F331FD901A35DBB4FBA87A98760
:102650009501A601B501C6010E949FE19701A8015D
:102660000E949EE16B017C01292D382D472D562DAE
:10267000692D782D872D962D0E949FE1252D342DD3
:10268000432D522D0E949EE19B01AC01C701B60172
:102690000E949FE16B017C0129813A814B815C8121
:1026A00069817A818B819C810E949FE12D813E818D
:1026B0004F8158850E949EE19B01AC01C701B60184
:1026C0000E949FE120E030E040E450E40E941AE2E2
:1026D000E985FA8560837183828393832C960FB694
:1026E000F894DEBF0FBECDBFDF91CF911F910F9148
:1026F000FF90EF90DF90CF90BF90AF909F908F9022
:102700007F906F905F904F903F902F900895CF9360
:10271000DF93E8E3F7E06491EF012196662329F067
:1027200088EC92E169DEFE01F6CF40914B065091B4
:102730004C0660914D0670914E0622E030E088EC28
:1027400092E158DEE4E3F7E06491EF01219666231D
:1027500029F088EC92E150DEFE01F6CF40914F0661
:1027600050915006609151067091520622E030E07F
:1027700088EC92E13FDEE0E3F7E06491EF0121961F
:10278000662329F088EC92E137DEFE01F6CF409116
:10279000530650915406609155067091560622E0FA
:1027A00030E088EC92E126DEECE2F7E06491EF01A4
:1027B0002196662329F088EC92E11EDEFE01F6CF19
:1027C00040915706509158066091590670915A06EB
:1027D00022E030E088EC92E10DDEDF91CF910C94A5
:1027E0006B8D8F929F92AF92BF92CF92DF92EF92BA
:1027F000FF920F931F93CF93DF93EEE7F6E0649180
:10280000EF012196611129C0C0E060E288EC92E1FD
:10281000F3DDCF5FC630C9F740E050E0BA0188EC85
:1028200092E10E940BDFC0E060E288EC92E1E4DD1F
:10283000CF5FC630C9F741E050E060E070E088EC5F
:1028400092E10E940BDF6AE088EC92E1D5DD0DE2B7
:1028500014E0812C912C54013FC088EC92E1CCDD36
:10286000FE01CDCF60E288EC92E1C6DDF801EC0F0D
:10287000FD1FC080D180E280F380A7019601C701CF
:10288000B6010E9491E4811134C020E030E0A9013A
:10289000C701B6010E94B8E387FD04C06BE288EC73
:1028A00092E1AADD23E030E0B701A60188EC92E1D5
:1028B000A1DD2896C031D105A9F66AE088EC92E145
:1028C0009BDD0C5F1F4F8A9489288A288B28E1F0B2
:1028D000812C912C5401839460E288EC92E18CDD90
:1028E000B501A40188EC92E10E940BDFC0E0D0E0CA
:1028F000B9CFF12C60E288EC92E17EDDF39486E0C2
:10290000F816B9F26DE3F7CF6AE088EC92E1DF9157
:10291000CF911F910F91FF90EF90DF90CF90BF90DC
:10292000AF909F908F9068CD0FB6F8948091BD12B4
:102930009091BE12A091BF12B091C0120FBE8093B1
:102940005C0490935D04A0935E04B0935F040895CB
:102950008091300190913101A0913201B091330109
:1029600080939E0490939F04A093A004B093A1042D
:1029700080912E0190912F0190939D0480939C044F
:1029800084E690E090932F0180932E01CDCF80912B
:102990009E0490919F04A091A004B091A104809303
:1029A000300190933101A0933201B09333018091B3
:1029B0009C0490919D0490932F0180932E01B4CF9D
:1029C0004F925F926F927F92AF92BF92CF92DF92BF
:1029D000EF92FF92CF93DF93EB01FC016081718155
:1029E000828193812CE3C22ED12CE12CF12CA70102
:1029F00096010E94D2E4B62EA72ECA01B901A70102
:102A000096010E94D2E46B017C01CA01B90128E160
:102A100030E040E050E00E94D2E42B013C01C901CB
:102A20006DE671E00E94ABE461157105D9F0AF92DB
:102A3000BF92DF92CF925F924F929F938F937F933B
:102A40006F938EEE95E09F938F93DF93CF930E94C9
:102A5000BEE98DB79EB70E960FB6F8949EBF0FBE17
:102A60008DBF61C00097C9F0AF92BF92DF92CF9245
:102A70005F924F929F938F938EED95E09F938F93EC
:102A8000DF93CF930E94BEE9EDB7FEB73C960FB639
:102A9000F894FEBF0FBEEDBF46C04114510461045F
:102AA0007104B9F0AF92BF92DF92CF925F924F92D2
:102AB00082ED95E09F938F93DF93CF930E94BEE9C1
:102AC0008DB79EB70A960FB6F8949EBF0FBE8DBF06
:102AD0002AC0C114D104E104F104A9F0AF92BF925D
:102AE000DF92CF928AEC95E09F938F93DF93CF9301
:102AF0000E94BEE9EDB7FEB738960FB6F894FEBF58
:102B00000FBEEDBF10C0AF92BF9286EC95E09F93D1
:102B10008F93DF93CF930E94BEE90F900F900F9099
:102B20000F900F900F90DF91CF91FF90EF90DF907B
:102B3000CF90BF90AF907F906F905F904F9008952F
:102B40000F931F93CF93DF93CDB7DEB72C970FB6BC
:102B5000F894DEBF0FBECDBFEBE4F6E08085918533
:102B6000A285B38544815581668177810081118179
:102B70002281338109871A872B873C874D835E83A7
:102B80006F83788789839A83AB83BC83AE014F5F61
:102B90005F4FBE016B5F7F4FCE0109960E94FB75B0
:102BA00027E536E0AE014F5F5F4FBE016B5F7F4FA1
:102BB000CE0109960E942F822C960FB6F894DEBFA4
:102BC0000FBECDBFDF91CF911F910F9108958F92CE
:102BD0009F92AF92BF92CF92DF92EF92FF920F93AC
:102BE0001F93CF93DF93CDB7DEB760970FB6F894FE
:102BF000DEBF0FBECDBFB22ED32E7C01EE0CFF1C6C
:102C0000EE0CFF1CC701855B994F4C01FC01108243
:102C10001182128213824D875E876F87788B90DFD7
:102C20004D855E856F857889F40140835183628389
:102C30007383C090640420E030E0A901B8018B2DBB
:102C40009D2D0E9416E2811108C0F701E151FD4F50
:102C50009080A180B280D38002C0902EA12E80915E
:102C6000530690915406A0915506B0915606409196
:102C70004F06509150066091510670915206009196
:102C80004B0610914C0620914D0630914E06098757
:102C90001A872B873C874D835E836F837887898370
:102CA0009A83AB83BC83AE014F5F5F4FBE016B5F06
:102CB0007F4FCE0109960E94FB75E92CFA2C0B2D53
:102CC0001D2D27E536E0AE014F5F5F4FBE016B5F04
:102CD0007F4FCE0109960E944C770E94998C1092EA
:102CE000F80A60960FB6F894DEBF0FBECDBFDF9135
:102CF000CF911F910F91FF90EF90DF90CF90BF90F9
:102D0000AF909F908F90089580912A0680932B0614
:102D100010922C06089520912A0630E0F901E35E16
:102D2000FB4F80832F5F3F4F2370332720932A066A
:102D300080912C068F5F80932C060895CF93FC0121
:102D400080818B33A1F080912C06843080F4C62FD3
:102D5000BF0180912A0620E6829FC001112486557A
:102D60009B4F0E949AE98C2FD6DF81E001C080E062
:102D7000CF910895EF92FF921F93CF93DF937C0141
:102D8000DDDF182F8823C9F0EDE5FFE06491EF0146
:102D90002196662329F088EC92E12EDBFE01F6CF26
:102DA000B70186E699E00E94418462E288EC92E1F4
:102DB00023DB6AE088EC92E11FDB812FDF91CF916A
:102DC0001F91FF90EF900895DF92EF92FF920F9383
:102DD0001F93CF93DF93CDB7DEB76E970FB6F894FE
:102DE000DEBF0FBECDBF6091A2047091A304611538
:102DF000710549F14DE150E0CE0101967C010E9440
:102E000029E91E8EF7018F010E191F09D190DD20CF
:102E100019F09AE0D912F7CFF701E00FF11F1082F5
:102E200060E0C701A7DF882371F0DD20A9F00F5F04
:102E30001F4F8091A2049091A304080F191F1093B3
:102E4000A3040093A20481E02091A2043091A30482
:102E5000232B29F480E003C000E010E0F0CF6E9651
:102E60000FB6F894DEBF0FBECDBFDF91CF911F919B
:102E70000F91FF90EF90DF9008959093A3048093BB
:102E8000A204A2CFE091A404F091A504818121E0E5
:102E900030E0803239F42F5F3F4FDF01A20FB31FC4
:102EA0008C91F7CF8D3211F08B3231F42F5F3F4F81
:102EB000DF01A20FB31F8C918E3219F4E20FF31FC2
:102EC000818190ED980F81E09A3008F080E00895BC
:102ED0000F931F93CF93DF93C091A404D091A504C7
:102EE00065E470E0CE010E9486E98C01CE01019676
:102EF0000115110541F460E070E0DF91CF911F9161
:102F00000F910C943EE5F801108260E070E00E94A1
:102F10003EE525E4F8012083DF91CF911F910F91C9
:102F200008958091A4049091A5044AE050E060E0E7
:102F300070E001960C94CCE78091A4049091A504D4
:102F40004AE050E060E070E001960C94A4E68091C5
:102F5000A4049091A5044AE050E060E070E001967E
:102F60000E94A4E6CB0108958091A4049091A50449
:102F70004AE050E060E070E001960E94CCE7CB01AF
:102F800008958091A4049091A5044AE050E060E087
:102F900070E001960E94A4E697FD1EC08091A404F3
:102FA0009091A5044AE050E060E070E001960E9434
:102FB000A4E66F3F71058105910509F07CF48091CD
:102FC000A4049091A5044AE050E060E070E001960E
:102FD0000E94A4E6862F089580E008958FEF08955B
:102FE00051DF882331F0CDDF91E0811103C090E003
:102FF00001C091E0892F08956BCF6ACF69DF20E08F
:1030000030E04AE754E40E94ECE30C9487E2682F36
:10301000880F770B8091A6049091A7040E9486E9FF
:103020009C019093A5048093A40481E0232B09F4D0
:1030300080E00895EF92FF921F93CF93DF937C017E
:1030400084E5E5DF182F882361F19BDF823020F1D2
:10305000EDE5FFE06491EF012196662329F088EC0D
:1030600092E1CAD9FE01F6CF6DE488EC92E1C4D9B1
:10307000A701FF0C660B770B88EC92E10E940BDF37
:1030800080DF682F70E08BEF97E00E9469846AE030
:1030900088EC92E1B1D909C074DF8093490410E053
:1030A00004C08091640480934904812FDF91CF9103
:1030B0001F91FF90EF900895CF92DF92EF92FF92D1
:1030C0000F931F93CF93DF93EC01CC0FDD1FCC0F39
:1030D000DD1FFE01E158FB4F20E030E0A9016081D7
:1030E0007181828193810E949FE1FE01E557FB4F30
:1030F00020813181428153810E949FE16B017C01DB
:10310000FE01ED58FB4F6083718382839383CE0170
:103110008A55964F5AD98E0109591B4FA70196011E
:103120000E949FE1F8016083718382839383CE01C3
:103130008656964F4AD9C35FDE4FA70196010E947B
:103140009FE1688379838A839B83DF91CF911F916D
:103150000F91FF90EF90DF90CF900895CF92EF9274
:10316000FF920F931F93CF93DF93CDB7DEB72C97CA
:103170000FB6F894DEBF0FBECDBFC0906404EBE481
:10318000F6E080859185A285B3854481558166816D
:103190007781008111812281338109871A872B87EA
:1031A0003C874D835E836F83788789839A83AB8363
:1031B000BC83AE014F5F5F4FBE016B5F7F4FCE019F
:1031C00009960E94FB75E0903001F090310100916A
:1031D00032011091330127E536E0AE014F5F5F4FBA
:1031E000BE016B5F7F4FCE0109960E944C772C96F3
:1031F0000FB6F894DEBF0FBECDBFDF91CF911F9108
:103200000F91FF90EF90CF9008958F929F92AF9281
:10321000BF92CF92EF92FF920F931F93CF93DF93C2
:10322000CDB7DEB72C970FB6F894DEBF0FBECDBF7B
:103230004B015C01C0906404EBE3F6E0808591856E
:10324000A285B38544815581668177810081118192
:103250002281338109871A872B873C874D835E83C0
:103260006F83788789839A83AB83BC83AE014F5F7A
:103270005F4FBE016B5F7F4FCE0109960E94FB75C9
:103280008501740127E436E0AE014F5F5F4FBE0158
:103290006B5F7F4FCE0109960E944C772C960FB63C
:1032A000F894DEBF0FBECDBFDF91CF911F910F917C
:1032B000FF90EF90CF90BF90AF909F908F90089528
:1032C00080E1EBE3F6E0ABE4B6E001900D928A9585
:1032D000E1F708952F923F924F925F926F927F9203
:1032E0008F929F92AF92BF92CF92DF92EF92FF9216
:1032F0000F931F93CF93DF9300D000D0CDB7DEB7ED
:103300005C014B018A013C832B834090300150903B
:1033100031016090320170903301FA01C080D18098
:10332000E280F380A70196016091530670915406E4
:1033300080915506909156060E9416E287FF2FC095
:10334000EB81FC8120803180F281F983EB81FC816B
:10335000F381FA8320E030E0A901B10189819F2F38
:103360000E9416E2882319F039812A8104C0212C99
:10337000312C30E820E4C101A32FB22F809330011B
:1033800090933101A0933201B0933301C092530660
:10339000D0925406E0925506F0925606DFDEEB819D
:1033A000FC81C080D180E280F38020E030E0A90180
:1033B000C701B6010E9416E2811108C0C090040145
:1033C000D0900501E0900601F0900701C092300115
:1033D000D0923101E0923201F0923301F501808107
:1033E0009181A281B38180934B0690934C06A09368
:1033F0004D06B0934E06F40180819181A281B38184
:1034000080934F0690935006A0935106B0935206B6
:10341000A5DEF801C080D180E280F380A70196018B
:10342000609153067091540680915506909156060E
:103430000E94B8E3181664F5EB81FC81B08001812D
:103440001281A38020E030E0A9016B2D702F812F25
:103450009A2D0E9416E2882311F02A2D04C0B12C67
:1034600000E010E820E48B2D902FA12FB22F809345
:10347000300190933101A0933201B0933301C09297
:103480005306D0925406E0925506F092560666DE38
:103490000E94998C40923001509231016092320129
:1034A000709233010F900F900F900F90DF91CF919A
:1034B0001F910F91FF90EF90DF90CF90BF90AF9052
:1034C0009F908F907F906F905F904F903F902F9044
:1034D00008959B01AC016FE476E08BE496E0FACEB0
:1034E0009A0143E556E0F6CE8F929F92AF92BF923B
:1034F000CF92DF92EF92FF92CF93DF93CDB7DEB7FB
:1035000028970FB6F894DEBF0FBECDBF20917B0485
:1035100030917C0440917D0450917E040E949FE193
:103520006B017C016D837E838F8398878090450437
:1035300090904604A0904704B090480420E030E00A
:10354000A901C501B4010E9416E287FF0AC0A501C6
:103550009401C701B6010E949EE16D837E838F8333
:10356000988720915306309154064091550650910A
:1035700056066D817E818F8198850E94B8E318166A
:1035800054F419821A821B821C82BE016F5F7F4F26
:10359000CE0105969EDF28960FB6F894DEBF0FBECB
:1035A000CDBFDF91CF91FF90EF90DF90CF90BF9094
:1035B000AF909F908F900895EF92FF921F93CF93BB
:1035C000DF93882329F0D091380681E0D82701C005
:1035D000D0E0662329F01091390681E0182701C058
:1035E00010E0442329F0C0913A0681E0C82701C0C9
:1035F000C0E0D11105C0111103C0CC2309F48CC067
:10360000EDE5FFE064917F018FEFE81AF80A662389
:1036100031F088EC92E10E94FC11F701F3CFE5EF65
:10362000F7E064917F019FEFE91AF90A662331F010
:1036300088EC92E10E94FC11F701F3CFDD2379F0D1
:10364000E3EFF7E064917F018FEFE81AF80A662351
:1036500031F088EC92E10E94FC11F701F3CF1123C5
:1036600079F0E1EFF7E064917F019FEFE91AF90A41
:10367000662331F088EC92E10E94FC11F701F3CF50
:10368000C11103C0E7EEF7E00FC0EFEEF7E0649181
:103690007F018FEFE81AF80A6623A1F388EC92E124
:1036A0000E94FC11F701F3CF64917F019FEFE91AAB
:1036B000F90A662331F088EC92E10E94FC11F701CF
:1036C000F3CFC11103C04BE353E002C048E552E021
:1036D000111103C02BE333E002C02AE532E0D1111F
:1036E00003C08BE393E002C08CE592E05F934F93BD
:1036F0003F932F939F938F9385ED97E09F938F93A5
:103700001F920E94A8A78DB79EB709960FB6F8948E
:103710009EBF0FBE8DBFC1E08C2FDF91CF911F9157
:10372000FF90EF9008951F93CF93DF93CDB7DEB74F
:103730002C970FB6F894DEBF0FBECDBF9091F50A5F
:10374000981779F1182F60E070E080E291E4CCDE08
:1037500080914B0690914C06A0914D06B0914E067B
:1037600089879A87AB87BC8780914F0690915006D6
:10377000A0915106B09152068D839E83AF83B88786
:1037800019821A821B821C829E012F5F3F4F43E5E4
:1037900056E0BE016B5F7F4FCE0109969BDD109313
:1037A000F50A80E02C960FB6F894DEBF0FBECDBFB1
:1037B000DF91CF911F9108954F925F926F927F9208
:1037C0008F929F92AF92BF92CF92DF92EF92FF9231
:1037D0000F931F93CF93DF9300D000D000D0CDB7CD
:1037E000DEB77C01FC01ED58F64F149182E0E8163B
:1037F000F10421F481E097DF811123C16701CC0C32
:10380000DD1CCC0CDD1CC6018E57964F0E94E511C5
:103810004B015C01612F110F770B880B990B0E94F4
:10382000B5E22B013C0120E030E040EC5FE3C50154
:10383000B4010E94ECE3A30192010E94ECE3AB010E
:10384000BC0100E010E09801C701C1D992E0E9167F
:10385000F10479F48EE799E00E94E51120E030E070
:1038600040EA50E40E9416E287FD09C08EE799E025
:1038700003C0C6018A58964F0E94E51104C060E05B
:1038800070E080EA90E49B01AC01C301B2010E94A8
:10389000ECE34B015C0120E030E0A9010E9416E25C
:1038A000882309F45CC000E010E09801B501A40190
:1038B0007058C7018CD986E0E2E0F2E0DE01119693
:1038C00001900D928A95E1F7F701EE0FFF1F81E05D
:1038D00090E08C0F9D1FE80FF91F808191811816D1
:1038E0001906F4F0EDE5FFE064918F010F5F1F4FC3
:1038F000662331F088EC92E10E94FC11F801F4CFCC
:10390000EBE3F7E064918F010F5F1F4F662331F007
:1039100088EC92E10E94FC11F801F4CF8AE090E07B
:10392000BC01990F880B990B0E94B5E29B01AC0179
:10393000F601E151FD4F60817181828193810E9486
:103940001AE22B013C01A5019401C501B4010E94BA
:103950009FE1AB01BC0193018201C70138D981E02D
:10396000F701E85CF94F8083F701EB5CF94F808346
:10397000F601E557FB4F1082118212821382C701B4
:103980009BDBC6018257964F0E94E5118601055BBD
:10399000194FF601ED58FB4F20813181428153814F
:1039A0000E949FE1F8016083718382839383F2E038
:1039B000EF16F104D1F42091450430914604409172
:1039C00047045091480460915306709154068091C9
:1039D0005506909156060E949EE16093530670939F
:1039E00054068093550690935606AAD8F601E55CD6
:1039F000F94FD601A55BB94F8D919D910D90BC916A
:103A0000A02D80839183A283B38382E0E816F10422
:103A1000C1F480E026960FB6F894DEBF0FBECDBF8E
:103A2000DF91CF911F910F91FF90EF90DF90CF909A
:103A3000BF90AF909F908F907F906F905F904F90CE
:103A400072CE26960FB6F894DEBF0FBECDBFDF91C3
:103A5000CF911F910F91FF90EF90DF90CF90BF908B
:103A6000AF909F908F907F906F905F904F90089550
:103A7000BF92CF92DF92EF92FF920F931F93CF935B
:103A8000DF938BE3E82E86E0F82E0BE416E098E94E
:103A9000C92E94E0D92ECBEED2E0BC2E84E0B80E35
:103AA0008991B5DA8823D1F013DAF601208121114A
:103AB00004C020916304222331F0F8012081318178
:103AC0004281538103C020E030E0A9010E949FE1C0
:103AD000F70160837183828393830AC0F801808138
:103AE0009181A281B381F70180839183A283B38303
:103AF000F4E0EF0EF11C0C5F1F4F8FEFC81AD80ACD
:103B0000BC12CECF86E483DA8823B9F0E1D920E075
:103B100030E0A9010E94B8E318167CF4D9D920E05E
:103B200030E040E752E40E941AE260933001709363
:103B300031018093320190933301DF91CF911F9136
:103B40000F91FF90EF90DF90CF90BF900895CF93AB
:103B5000DF93EDE5FFE06491EF012196662331F0FC
:103B600088EC92E10E94FC11FE01F5CF6091A8045F
:103B70007091A90480EB97E00E94418462E288EC96
:103B800092E10E94FC116AE088EC92E1DF91CF9112
:103B90000C94FC112F923F924F925F926F927F9202
:103BA0008F929F92AF92BF92CF92DF92EF92FF924D
:103BB0001F93CF93DF93CDB7DEB728970FB6F89456
:103BC000DEBF0FBECDBF1C01162F209173043091B4
:103BD00074044091750450917604DC016D917D91DF
:103BE0008D919C910E949EE16B017C01F10184808A
:103BF0009580A680B78040907704509078046090BC
:103C0000790470907A04112341F020E030E040EA1A
:103C100051E40E949EE16B017C01D10118968D91C7
:103C20009D910D90BC91A02D89839A83AB83BC8319
:103C300080917B0490917C04A0917D04B0917E04DE
:103C40008D839E83AF83B88727E137EB41ED58EB37
:103C5000C701B6010E94B8E387FD43C027E030E00A
:103C600046E153E4C701B6010E9416E21816CCF1F2
:103C7000A3019201C501B4010E949EE16B017C0188
:103C800027E137EB41ED58EB0E94B8E387FD29C0EF
:103C900027E030E043E153E4C701B6010E9416E299
:103CA0001816FCF02D813E814F81588569817A81FB
:103CB0008B819C810E949EE16B017C0127E137EBA7
:103CC00041ED58EB0E94B8E387FD0BC011E027E0FF
:103CD00030E046E153E4C701B6010E9416E218162F
:103CE0000CF410E0812F28960FB6F894DEBF0FBEBB
:103CF000CDBFDF91CF911F91FF90EF90DF90CF90DC
:103D0000BF90AF909F908F907F906F905F904F90FB
:103D10003F902F9008950F931F93CF93DF938C01C3
:103D2000E8EAF7E06491EF012196662331F088EC30
:103D300092E10E94FC11FE01F5CFF8016491EF01C0
:103D40002196662331F088EC92E10E94FC11FE017D
:103D5000F5CFEFE8F7E06491EF012196662331F0AB
:103D600088EC92E10E94FC11FE01F5CFDF91CF912A
:103D70001F910F9108958F929F92AF92BF92CF9211
:103D8000DF92EF92FF920F931F93CF93DF9300D0B8
:103D900000D0CDB7DEB785E43AD9D82E811102C064
:103DA0000E94998C8BEEA82E82E0B82E9BE8E92E1B
:103DB00094E0F92E0BE416E0812C912CC12CF50136
:103DC00081915F0124D9882359F1F8012081318143
:103DD0004281538129833A834B835C8379D8F801EC
:103DE000608371838283938329813A814B815C81D3
:103DF000F3E08F169104A1F00E949EE19B01AC01BB
:103E0000F70160817181828193810E949FE1F701B6
:103E10006083718382839383C4014ED9CC24C3947D
:103E2000FFEF8F1A9F0A84E0E80EF11C0C5F1F4F12
:103E3000E4E08E16910409F0C2CFCC2019F00E9464
:103E4000A01508C0DD2031F067E576E083E090E062
:103E50000E9423830F900F900F900F90DF91CF91CE
:103E60001F910F91FF90EF90DF90CF90BF90AF9098
:103E70009F908F900C948713CF93DF93EEE1F6E041
:103E80006491EF012196662331F088EC92E10E9463
:103E9000FC11FE01F5CF8CE596E00E941158EFE091
:103EA000F6E06491EF012196662331F088EC92E10F
:103EB0000E94FC11FE01F5CFDF91CF910895809112
:103EC0005F06882399F083E5A2D8882379F034D857
:103ED000AB01BC014093CD085093CE086093CF084E
:103EE0007093D0088CE198E00C94864B08950F9362
:103EF0001F93CF93DF93CDB7DEB769970FB6F894D2
:103F0000DEBF0FBECDBF8AE494E00E94768F6E8B39
:103F10007F8B888F998FBE016F5F7F4FCE01469652
:103F20000E94E01460E0CE0101960E944AA7EDE5F0
:103F3000FFE064918F010F5F1F4F662331F088EC23
:103F400092E10E94FC11F801F4CFBE016F5F7F4F38
:103F500082E096E00E9441846AE088EC92E10E944F
:103F6000FC118091310B8823F9F01092310B609194
:103F70004A1170914B11072E000C880B990B0E946F
:103F8000B5E22091420130914301409144015091AA
:103F900045010E94B8E318163CF410924B111092A0
:103FA0004A1180E00E94D39469960FB6F894DEBF60
:103FB0000FBECDBFDF91CF911F910F9108951F9339
:103FC000CF93DF9380915E0681110E94998CC091FE
:103FD000A604D091A70461E270E0CE010E9486E9B8
:103FE000009711F0EC01219680E511D8882341F06B
:103FF00011E08091A4049091A5048C179D0708F00E
:1040000010E080915F06882389F1212F41E0BE01F5
:104010008CE596E00E94BF5C83E50E940718882328
:1040200039F08091A4049091A5048C179D0768F045
:104030008CE596E00E947359111118C08AE494E04F
:10404000DF91CF911F910C94AE8F0E949C17AB0112
:10405000BC014093CD085093CE086093CF08709375
:10406000D0088CE198E00E94864BE2CFDF91CF919F
:104070001F91089588E690E00E941A18811143C0AC
:1040800080915B0683FD3FC0909149048091640458
:10409000981339C083E50E940718882391F10E9484
:1040A00068170E9482E270934B1160934A1180E07E
:1040B0000E94D3940E94681720915211309153119D
:1040C00040915411509155110E94B8E31816CCF448
:1040D0008EE592E09F938F938091490490E0019642
:1040E0009F938F9380EB95E09F938F931F920E94F5
:1040F000A8A78DB79EB707960FB6F8949EBF0FBEC0
:104100008DBF0C940D840895CF93DF93EBE8F7E017
:104110006491EF012196662331F088EC92E10E94D0
:10412000FC11FE01F5CF4091521150915311609155
:1041300054117091551121E030E088EC92E10E9419
:10414000FA11E8E8F7E06491EF012196662331F077
:1041500088EC92E10E94FC11FE01F5CF60914A11BA
:1041600070914B11072E000C880B990B0E94B5E241
:10417000AB01BC0121E030E088EC92E10E94FA1131
:10418000E4E8F7E06491EF012196662331F088ECD2
:1041900092E10E94FC11FE01F5CF40914E11509129
:1041A0004F11609150117091511121E030E088EC75
:1041B00092E10E94FA11E1E8F7E06491EF012196A3
:1041C000662331F088EC92E10E94FC11FE01F5CFEC
:1041D0006091461170914711072E000C880B990BC6
:1041E0000E94B5E2AB01BC0121E030E088EC92E135
:1041F0000E94FA11EDE7F7E06491EF012196662342
:1042000031F088EC92E10E94FC11FE01F5CF809123
:10421000490490E00E949390AC01990F660B770BD4
:1042200088EC92E10E940BDFE8E7F7E06491EF0190
:104230002196662331F088EC92E10E94FC11FE0188
:10424000F5CF8FEF9FEF0E949390AC01990F660B13
:10425000770B88EC92E1DF91CF910C940BDFCF9339
:10426000DF9389E690E00E941A18811115C0E9E6F3
:10427000F5E06491EF012196662331F088EC92E13C
:104280000E94FC11FE01F5CF3FDF6AE088EC92E16D
:10429000DF91CF910C94FC11DF91CF910895CF93D2
:1042A000DF9383E50E940718882329F00E94B41742
:1042B000D82FC92F02C0DFEFC0E080E50E940718A9
:1042C000882321F00E94B417892B61F42D2F3C2FF5
:1042D0002F3F310519F010F02FEF30E030936604D6
:1042E00020936504DF91CF910895DF92EF92FF92C2
:1042F0000F931F93CF93DF9383E50E9407188823C2
:1043000019F00E94C11701C080E080935B06EDE5C3
:10431000FFE06491EF012196662331F088EC92E191
:104320000E94FC11FE01F5CFE9EAF5E06491EF018E
:104330002196662331F088EC92E10E94FC11FE0187
:10434000F5CF80915B068823A9F18FE9E82E85E0FF
:10435000F82E00E010E020E080915B0690E0002E57
:1043600002C0959587950A94E2F780FF1AC0DD2474
:10437000D394D20E222329F06CE288EC92E10E94C1
:10438000FC11F70185919491FC016491EC01219657
:10439000662331F088EC92E10E94FC11CE01F4CF4B
:1043A0002D2D0F5F1F4FF2E0EF0EF11C05301105B0
:1043B00099F60DC0EBE9F5E06491EF0121966623D3
:1043C00031F088EC92E10E94FC11FE01F5CF6AE029
:1043D00088EC92E1DF91CF911F910F91FF90EF90C8
:1043E000DF900C94FC11CF93DF9383E50E940718B4
:1043F000882301F10E94A717C82F8230E0F0E3E67E
:10440000FFE06491EF012196662331F088EC92E1A0
:104410000E94FC11FE01F5CFEAE2F4E06491EF01A5
:104420002196662309F455C088EC92E10E94FC11A4
:10443000FE01F4CFC0E088E40E9407188823B1F0A1
:104440000E94A717EC2FF0E08A3A91053CF08E31DC
:1044500021E092072CF08DE191E002C08AEA90E021
:10446000EE0FFF1FEF50FE4E9183808386E40E9483
:1044700007188823A1F00E94A717EC2FF0E0EE0F99
:10448000FF1FE751FE4E8F3F910519F014F08FEF9B
:1044900090E097FF02C080E090E09183808382E407
:1044A0000E9407188823A9F00E94A717EC2FF0E0BC
:1044B0008530910534F08C3E91052CF08BEE90E028
:1044C00002C085E090E0EE0FFF1FE351FE4E9183A6
:1044D0008083DF91CF9108954F925F926F927F9288
:1044E000AF92BF92CF92DF92EF92FF920F931F9302
:1044F000CF938BEEA82E82E0B82E03E91BE0C0E03C
:10450000F50181915F010E940718882309F46DC0AD
:10451000C33009F063C00E9468176B017C0120E082
:1045200030E040EA51E40E9416E287FF4EC0A70146
:10453000960160919F0B7091A00B8091A10B9091BF
:10454000A20B0E941AE22B013C019B01AC0160917D
:104550004B0B70914C0B80914D0B90914E0B0E9428
:10456000ECE360934B0B70934C0B80934D0B90934B
:104570004E0BA30192016091AF0B7091B00B809133
:10458000B10B9091B20B0E94ECE36093AF0B709370
:10459000B00B8093B10B9093B20B60917F0B709135
:1045A000800B8091810B9091820B0E94B3E2A3015A
:1045B00092010E94ECE30E9487E260937F0B70936C
:1045C000800B8093810B9093820BC0929F0BD092B3
:1045D000A00BE092A10BF092A20B07C00E946817FB
:1045E000F8016083718382839383CF5F0C5F1F4FD9
:1045F000C43009F085CFCF911F910F91FF90EF90BC
:10460000DF90CF90BF90AF907F906F905F904F9072
:104610000C94E98383E50E9407188823E9F00E943F
:104620006817AB01BC014093570B5093580B609334
:10463000590B70935A0B40934F0B5093500B609350
:10464000510B7093520B82E094E00E94A6846AE0C2
:1046500088EC92E10E94FC1180E50E9407188823F3
:10466000A9F00E946817AB01BC014093570B50930F
:10467000580B6093590B70935A0B85EE93E00E9490
:10468000A6846AE088EC92E10E94FC1182E50E9417
:1046900007188823A9F00E946817AB01BC0140935A
:1046A000530B5093540B6093550B7093560B86EC41
:1046B00093E00E94A6846AE088EC92E10E94FC11DB
:1046C00084E50E9407188823A9F00E946817AB01AF
:1046D000BC0140934F0B5093500B6093510B709360
:1046E000520B88EA93E00E94A6846AE088EC92E18B
:1046F0000C94FC11089583E50E940718882351F05B
:104700000E94681760935B0B70935C0B80935D0B4A
:1047100090935E0B84E50E940718882351F00E9455
:10472000681760933B0B70933C0B80933D0B909309
:104730003E0B82E40E940718882351F00E949117D3
:1047400060935F0B7093600B8093610B9093620B8F
:1047500088E50E940718882351F00E94681760932B
:104760003F0B7093400B8093410B9093420B89E574
:104770000E940718882351F00E9468176093430B2A
:104780007093440B8093450B9093460B8AE50E94EF
:104790000718882351F00E9468176093470B7093A5
:1047A000480B8093490B90934A0B85E40E940718AD
:1047B000882351F00E94681760934B0B70934C0B49
:1047C00080934D0B90934E0B08958F929F92AF92D2
:1047D000BF92CF92DF92EF92FF920F931F93CF93EE
:1047E000DF938BEEC82E82E0D82E9BE4E92E96E074
:1047F000F92E0FE714E0C0E0D0E0F60181916F01DF
:104800000E940718882309F10E9468174B015C0178
:10481000F80120813181428153810E949EE19B01F8
:10482000AC01F70160817181828193810E949FE1D7
:10483000F7016083718382839383F8018082918280
:10484000A282B382CE010E945C182196F4E0EF0EA2
:10485000F11C0C5F1F4FC330D10579F60E94A015E3
:10486000DF91CF911F910F91FF90EF90DF90CF904C
:10487000BF90AF909F908F900C948713CF93DF934E
:10488000EDE5FFE06491EF012196662331F088ECBD
:1048900092E10E94FC11FE01F5CF83E50E9407180A
:1048A000882321F00E94F01780931901E8E9F3E0D2
:1048B0006491EF012196662331F088EC92E10E9429
:1048C000FC11FE01F5CF80911901811103C0E0E9CF
:1048D000F3E002C0E4E9F3E06491EF01219666237E
:1048E00031F088EC92E10E94FC11FE01F5CFE8E87E
:1048F000F3E06491EF012196662331F088EC92E1B8
:104900000E94FC11FE01F5CF4091670450916804AC
:104910006091690470916A0486E893E00E94A6841D
:1049200040916B0450916C0460916D0470916E0421
:1049300083E893E00E94A68440916F045091700434
:10494000609171047091720480E893E00E94A684E3
:10495000E8E7F3E06491EF012196662331F088ECFB
:1049600092E10E94FC11FE01F5CF40910D015091A2
:104970000E0160910F017091100186E793E00E9493
:10498000A684409111015091120160911301709120
:10499000140183E793E00E94A68440911501509191
:1049A0001601609117017091180180E793E00E9451
:1049B000A6846AE088EC92E1DF91CF910C94FC111F
:1049C000CF93DF9385E40E940718811110C080E522
:1049D0000E940718882399F00E9468176093750158
:1049E00070937601809377019093780108C00E94BC
:1049F000A717181619065CF7E3E6FFE06EC089E416
:104A00000E940718882381F00E9468172CEA35EC71
:104A100047E25EE30E94ECE36093710170937201E0
:104A2000809373019093740184E40E940718882393
:104A300081F00E9468172CEA35EC47E25EE30E94A1
:104A40001AE260936D0170936E0180936F019093F1
:104A500070010E949290EDE5FFE06491EF012196D4
:104A6000662331F088EC92E10E94FC11FE01F5CF43
:104A700040917501509176016091770170917801B4
:104A80008CE693E00E94A6842CEA35EC47E25EE3D4
:104A90006091710170917201809173019091740124
:104AA0000E941AE2AB01BC0188E693E00E94C78431
:104AB0002CEA35EC47E25EE360916D0170916E0186
:104AC00080916F01909170010E94ECE3AB01BC01F9
:104AD00084E693E00E94C78411C06491EF0121969F
:104AE000662331F088EC92E10E94FC11FE01F5CFC3
:104AF00069E672E088EC92E10E94EB116AE088ECD2
:104B000092E1DF91CF910C94FC11CF93DF9380E57C
:104B10000E940718882351F00E946817609369016A
:104B200070936A0180936B0190936C0189E40E94F9
:104B30000718882381F00E9468172CEA35EC47E2B9
:104B40005EE30E94ECE360936501709366018093DD
:104B500067019093680184E40E940718882381F01C
:104B60000E9468172CEA35EC47E25EE30E941AE2E5
:104B7000609361017093620180936301909364017B
:104B80000E949290EDE5FFE06491EF01219666238B
:104B900031F088EC92E10E94FC11FE01F5CF4091CA
:104BA000690150916A0160916B0170916C0180E61E
:104BB00093E00E94A6842CEA35EC47E25EE3609124
:104BC00065017091660180916701909168010E9472
:104BD0001AE2AB01BC018CE593E00E94C7842CEA89
:104BE00035EC47E25EE36091610170916201809172
:104BF0006301909164010E94ECE3AB01BC0188E584
:104C000093E00E94C7846AE088EC92E1DF91CF9143
:104C10000C94FC11EF92FF920F93CF93DF9385E4F6
:104C20000E940718882321F00E94A717EC0102C0F8
:104C3000C0E0D0E083E40E940718882321F00E949E
:104C4000A7177C0103C085E0E82EF12C85E50E94C2
:104C50000718882321F00E94F017082F01C000E0F8
:104C600083E50E940718882319F00E94681706C080
:104C7000D7FD09C060E070E086E193E4209739F445
:104C80001092490404C060E070E08CE892E497015F
:104C9000AE010E94A095DF91CF910F91FF90EF9010
:104CA0000895FF920F931F93CF93DF9389E40E949F
:104CB0000718F82E882331F00E9468170E9482E2BC
:104CC000C62F01C0C0E08AE40E940718082F88237D
:104CD00031F00E9468170E9482E2D62F01C0D0E016
:104CE0008AE50E940718182F882319F00E94681778
:104CF00003C060E070E0CB01FF2021F0002311F041
:104D0000111103C0E3E6FFE030C0C230A0F4D2309E
:104D100090F4EC2FEE0FFF0BED0FF11DD7FDFA9580
:104D2000EE0FFF1FEE0FFF1FE35DFB4F60837183EC
:104D30008283938332C0E3E6FFE06491EF01219622
:104D400061110DC0ECE0F3E06491EF012196662360
:104D500021F188EC92E10E94FC11FE01F5CF88EC74
:104D600092E10E94FC11FE01E8CF6491EF012196CF
:104D7000662331F088EC92E10E94FC11FE01F5CF30
:104D8000EAEEF2E06491EF012196662331F088ECBF
:104D900092E10E94FC11FE01F5CFDF91CF911F91AE
:104DA0000F91FF9008952F923F924F925F926F92D2
:104DB0007F928F929F92AF92BF92CF92DF92EF92AB
:104DC000FF920F931F93CF93DF9300D000D000D0BA
:104DD000CDB7DEB78FE7282E84E0382E0BE416E03F
:104DE00088E396E09A8389831E821D82E981FA8195
:104DF000E853F640FC83EB83E981FA818191FA83E1
:104E0000E983882309F4B4C0ED81FE81E35FFE4F9E
:104E10002081318142815381ED81FE81E959FB4F2F
:104E200060817181828193810E949FE120E030E066
:104E300040E05FE30E94ECE39B01AC01F80160817C
:104E40007181828193810E94B8E318163CF48D81B0
:104E50009E818257964F0E94E51103C060E070E08A
:104E6000CB01F80180809180A280B380ED81FE812A
:104E7000ED58FB4F20813181428153810E949FE197
:104E80009B01AC01C501B4010E949EE16B017C0154
:104E900020E030E040EA51EC0E94B8E387FD30C0EA
:104EA00020E030E040EA51E4C701B6010E9416E27A
:104EB000181634F1F1014080518062807380A7019F
:104EC0009601C301B2010E949EE16B017C01A30126
:104ED00092010E949EE19B01AC01C501B4010E94B8
:104EE0009FE1F8016083718382839383F101C08223
:104EF000D182E282F3828B819C810E945C1838C04F
:104F0000E3E6FFE064918F010F5F1F4F662331F0EE
:104F100088EC92E10E94FC11F801F4CFECECF2E095
:104F200064918F010F5F1F4F662331F088EC92E18F
:104F30000E94FC11F801F4CF8EEB92E026960FB69A
:104F4000F894DEBF0FBECDBFDF91CF911F910F91BF
:104F5000FF90EF90DF90CF90BF90AF909F908F9099
:104F60007F906F905F904F903F902F900C94C8A7C8
:104F7000F4E02F0E311C8D819E8104969E838D83DB
:104F80000C5F1F4F0C9709F031CF0E94A0150E94B3
:104F9000871360E08EEA92E026960FB6F894DEBFA3
:104FA0000FBECDBFDF91CF911F910F91FF90EF907A
:104FB000DF90CF90BF90AF909F908F907F906F9039
:104FC0005F904F903F902F900C945CA7CF92DF9210
:104FD000EF92FF92C0900001D0900101E090020199
:104FE000F0900301A7019601C701B6010E9491E468
:104FF000811166C0A7019601609145047091460435
:1050000080914704909148040E949EE16B017C01CD
:1050100020E030E0A9010E9416E2882309F450C084
:10502000A701960160912D0470912E0480912F04A8
:10503000909130040E949EE160932D0470932E04A1
:1050400080932F0490933004A7019601609131045E
:105050007091320480913304909134040E949EE157
:10506000609331047093320480933304909334043A
:10507000A701960160913504709136048091370440
:10508000909138040E949EE1609335047093360439
:105090008093370490933804A701960160913904F6
:1050A00070913A0480913B0490913C040E949EE1EF
:1050B0006093390470933A0480933B0490933C04CA
:1050C0008091450490914604A0914704B091480412
:1050D0008093000190930101A0930201B09303011A
:1050E000FF90EF90DF90CF900895CF92DF92EF92F4
:1050F000FF92CF93DF93EDE5FFE06491EF012196FE
:10510000662331F088EC92E10E94FC11FE01F5CF9C
:10511000E4EAF2E06491EF012196662331F088EC35
:1051200092E10E94FC11FE01F5CF8AE50E9407186A
:10513000882309F43DC00E9468176B017C0120E0C0
:1051400030E040EA51EC0E94B8E387FD0AC020E05D
:1051500030E040EA51E4C701B6010E9416E2181699
:105160001CF4EDE8F2E019C0C0924504D092460468
:10517000E0924704F092480480E028DF4091450423
:1051800050914604609147047091480422E030E059
:1051900088EC92E10E94FA1117C06491EF01219608
:1051A000662391F088EC92E10E94FC11FE01F5CF9C
:1051B0004091450450914604609147047091480421
:1051C0008AE892E00E94A6846AE088EC92E1DF918E
:1051D000CF91FF90EF90DF90CF900C94FC11CF9285
:1051E000DF92EF92FF920F931F93CF9383E50E947C
:1051F0000718811104C00BEE12E0C0E00EC00E943F
:1052000068176B017C01C0E0B701A6018C2F0E94DA
:105210004C8ECF5FC530C1F7EECFF80181918F0181
:105220000E940718882339F00E946817AB01BC015F
:105230008C2F0E944C8ECF5FC43079F7CF911F9195
:105240000F91FF90EF90DF90CF900895CF93DF9371
:1052500083E50E940718882321F00E94B417EC010F
:1052600002C0C0E0D0E080E50E940718882319F052
:105270000E94C11701C08FEFBE01DF91CF910C9446
:105280008D8ECF93DF93E3E6FFE06491EF012196EB
:10529000662331F088EC92E10E94FC11FE01F5CF0B
:1052A000EBE7F2E06491EF012196662331F088ECA0
:1052B00092E10E94FC11FE01F5CFDF91CF9108959C
:1052C000CF93DF9380936404EDE5FFE06491EF01F9
:1052D0002196662331F088EC92E10E94FC11FE01D8
:1052E000F5CF6091640470E086E697E00E946984DF
:1052F0006AE088EC92E1DF91CF910C94FC11CF939E
:10530000DF930E949414E0912B06F0E0E35EFB4FE4
:1053100080818823A1F0EFE6F2E06491EF0121960D
:10532000662331F088EC92E10E94FC11FE01F5CF7A
:105330006AE088EC92E1DF91CF910C94FC11DF914F
:10534000CF910895CF92DF92EF92FF92CF93DF93A8
:1053500020911901222309F485C0EC01C090670453
:10536000D0906804E0906904F0906A04A701960167
:10537000688179818A819B810E9416E287FF04C03F
:10538000C882D982EA82FB82C0906B04D0906C0400
:10539000E0906D04F0906E04A70196016C817D8110
:1053A0008E819F810E9416E287FF04C0CC82DD823D
:1053B000EE82FF82C0906F04D0907004E090710480
:1053C000F0907204A7019601688579858A859B858E
:1053D0000E9416E287FF04C0C886D986EA86FB864B
:1053E000C0900D01D0900E01E0900F01F0901001DF
:1053F000A7019601688179818A819B810E94B8E327
:10540000181624F4C882D982EA82FB82C090110166
:10541000D0901201E0901301F0901401A7019601C1
:105420006C817D818E819F810E94B8E3181624F4DF
:10543000CC82DD82EE82FF82C0901501D0901601F1
:10544000E0901701F0901801A70196016885798511
:105450008A859B850E94B8E3181624F4C886D986ED
:10546000EA86FB86DF91CF91FF90EF90DF90CF909F
:1054700008952F923F924F925F926F927F928F92F8
:105480009F92AF92BF92CF92DF92EF92FF920F93D3
:105490001F93CF93DF9300D000D000D0CDB7DEB7FD
:1054A0008C012091730430917404409175045091E3
:1054B0007604DC016D917D918D919C910E949EE11D
:1054C0006B017C0180913D0490913E04BC01990FD9
:1054D000880B990B0E94B5E29B01AC01C701B60194
:1054E0000E949EE16B017C01409141045091420475
:1054F000BA01550F880B990B0E94B5E29B01AC01D4
:10550000C701B6010E941AE24B015C0120917704A9
:10551000309178044091790450917A04F8016481C3
:105520007581868197810E949EE16B017C0180914B
:105530003F0490914004BC01990F880B990B0E9485
:10554000B5E29B01AC01C701B6010E949EE16B016F
:105550007C018091430490914404BC01990F880B15
:10556000990B0E94B5E29B01AC01C701B6010E94F4
:105570001AE26B017C01C501B4010E94F0E22B012B
:105580003C0120E030E0A9010E9416E287FD10C036
:1055900020E030E040E85FE3C301B2010E94B8E3DD
:1055A00018164CF0C301B2010E9482E28B0105C0C3
:1055B00000E010E002C001E010E0C701B6010E9467
:1055C000F0E22B013C0120E030E0A9010E9416E24C
:1055D00087FD26C020E030E040E85FE3C301B20170
:1055E0000E94B8E318160CF4EAC0C301B2010E948D
:1055F00082E27E836D8317FF06C098012F5F3F4FC5
:105600003A83298304C041E050E05A8349838D8165
:105610009E8197FF0DC01C019FEF291A390A0BC00C
:105620001E821D8217FDE9CF81E090E09A83898375
:1056300022242394312CB801012E000C880B990BE5
:105640000E94B5E29B01AC01C501B4010E949EE13C
:105650004B015C01AD81BE81BD01BB0F880B990B75
:105660000E94B5E29B01AC01C701B6010E949EE118
:105670006B017C0120E030E0A901C501B4010E946A
:1056800016E287FF03C0812C912C540120E030E00A
:10569000A901C701B6010E9416E287FF03C0C12C11
:1056A000D12C7601C801880F991FED81FE81E80F8A
:1056B000F91FEE0FFF1FEE0FFF1FE35DFB4F408052
:1056C00051806280738009811A81000F111F2D8122
:1056D0003E81200F311F220F331F220F331FD901AC
:1056E000A35DBB4F2D913D914D915C9129833A83F0
:1056F0004B835C83FC01E20DF31DEE0FFF1FEE0FE9
:10570000FF1FE35DFB4FA3019201608171818281E4
:1057100093810E949EE1A70196010E94ECE39B0108
:10572000AC01C301B2010E949FE12B013C01F801D1
:10573000E20DF31DEE0FFF1FEE0FFF1FE35DFB4FAA
:1057400029813A814B815C81608171818281938161
:105750000E949EE1A70196010E94ECE39B01AC012F
:1057600069817A818B819C810E949FE1A3019201D2
:105770000E949EE19B01AC01C501B4010E94ECE3D3
:105780009B01AC01C301B2010E949FE126960FB6B6
:10579000F894DEBF0FBECDBFDF91CF911F910F9167
:1057A000FF90EF90DF90CF90BF90AF909F908F9041
:1057B0007F906F905F904F903F902F90089541E0C1
:1057C00050E05E834D832ECFCF93DF9380E090E057
:1057D0000E94078DC1E2D4E0688379838A839B832A
:1057E00081E090E00E94078D6C837D838E839F8390
:1057F00082E090E00E94078D688779878A879B877F
:10580000DF91CF910895CF93DF93EC01DDDF81E24B
:1058100094E00E94CD76C436D10551F48CE0E1E2EB
:10582000F4E0ABE4B6E001900D928A95E1F711C087
:10583000CC0FDD1FCC0FDD1FFE01E55BF94FCF5D07
:10584000DB4F88819981AA81BB8180839183A28368
:10585000B383DF91CF910895882369F020914104AB
:1058600030914204232BB1F0209143043091440441
:10587000232B09F4089590913A0B891759F08093DE
:105880003A0B811103C082E090E0BDCF8BE496E03B
:105890000C94CD76089580E0DFDFE1E4F4E013823C
:1058A000128211821082EDE3F4E0138212821182DF
:1058B0001082EDE2F4E080E090E0A0ECBFE78083AE
:1058C0009183A283B38384839583A683B7838087E0
:1058D0009187A287B38784879587A687B78708951E
:1058E000EF92FF920F931F93CF93DF9300D000D0DE
:1058F000CDB7DEB70E94998C80E0AEDF0E94A8147D
:1059000011E01093350188E50E940718E82E89E51B
:105910000E940718082F8AE50E940718F82EE11048
:1059200004C0011104C0182705C0011102C010E015
:1059300001C0182F80E1EBE4F6E0ABE3B6E00190A4
:105940000D928A95E1F7111105C0E11003C0002303
:1059500009F440C020E030E040EA50E460917B046C
:1059600070917C0480917D0490917E040E949FE15F
:1059700060934306709344068093450690934606D1
:105980002091530630915406409155065091560689
:105990000E94B8E318165CF419821A821B821C82DA
:1059A000BE016F5F7F4F83E496E00E94691A111178
:1059B00005C0E11003C0011107C00CC080E090E0F9
:1059C0000E94DC1B1123B9F381E090E00E94DC1BF4
:1059D000111102C0FF2021F082E090E00E94DC1B48
:1059E0000E94A0158091F90A809335010E94C71486
:1059F0000E9487130F900F900F900F90DF91CF911F
:105A00001F910F91FF90EF900895CF92DF92EF9248
:105A1000FF926B017C016093360B7093370B809380
:105A2000380B9093390B2DEB37E346E855EB0E948A
:105A3000B8E387FD0AC02DEB37E346E855E3C7011D
:105A4000B6010E9416E218164CF4A701960160E018
:105A500070E080E89FE30E941AE203C060E070E01B
:105A6000CB016093320B7093330B8093340B909384
:105A7000350B80913A0B882339F082E090E0FF905B
:105A8000EF90DF90CF90BFCEFF90EF90DF90CF9060
:105A900008951F93CF93DF9386E50E94071888230C
:105AA00041F08091410490914204892B11F00E94B1
:105AB000F11383E50E940718882329F00E94F0174C
:105AC000C82FCADE01C0C0E08AE50E9407188823FB
:105AD00019F00E94681799DF10913A0BC11103C0A9
